:100000000C9434000C943E000C943E000C943E0082
:100010000C943E000C943E000C943E000C943E0068
:100020000C943E000C943E000C943E000C943E0058
:100030000C943E000C943E000C943E000C943E0048
:100040000C943E000C943E000C943E000C943E0038
:100050000C943E000C943E000C943E000C943E0028
:100060000C943E000C943E0011241FBECFEFD4E050
:10007000DEBFCDBF0E9440000C944F000C940000E6
:1000800080E184B980E48CBD87E08AB91BB896E131
:100090009EBD0DB407FEFDCF8EB58BB9F9CFF89498
:0200A000FFCF90
:00000001FF
