:1000000071C000008EC000008CC000008AC00000DB
:1000100088C0000086C0000084C0000082C00000CC
:1000200080C000007EC000007CC000007AC00000DC
:1000300078C0000076C0000074C0000072C00000EC
:1000400070C000006EC000006CC000006AC00000FC
:1000500068C0000066C0000064C0000062C000000C
:1000600060C000005EC000005CC000005AC000001C
:1000700058C0000056C0000054C0000052C000002C
:1000800050C000004EC000004CC000004AC000003C
:1000900048C0000046C0000044C0000042C000004C
:1000A00040C000003EC000003CC000003AC000005C
:1000B00038C0000036C0000034C0000032C000006C
:1000C00030C000002EC000002CC000002AC000007C
:1000D00028C0000026C0000024C0000022C000008C
:1000E00020C0000011241FBECFEFD1E2DEBFCDBF84
:1000F00000E00CBF22E0A4E0B2E001C01D92A630F7
:10010000B207E1F712E0A0E0B2E0EAECFBE000E0C9
:100110000BBF02C007900D92A430B107D9F7DAD017
:1001200052C56ECFEF92FF920F931F93CF93DF9341
:100130007C01DED4C5E0D0E0BE016AD28C01D8D407
:10014000BE0166D2EC01F801FF27EE0FFF1FEE0F94
:10015000FF1FEE0DFF1DDE01BB27AA0FBB1FAA0F5D
:10016000BB1FAE0DBF1D2D913D914D915C916081E6
:100170007181828193810ED487FD02C0802F01C0DE
:100180008C2FDF91CF911F910F91FF90EF900895E9
:100190002F923F924F925F926F927F928F929F9297
:1001A000AF92BF92CF92DF92EF92FF920F931F9385
:1001B000CF93DF9300D000D0CDB7DEB76D837E83C1
:1001C0008A012DB73EB73C832B839A01220F331F40
:1001D000220F331F4DB75EB7421B530B0FB6F89477
:1001E0005EBF0FBE4DBFEDB7FEB731961F018090C9
:1001F0000402909005026C01FA83E983E12CF12C52
:10020000A12CB12CE016F1063CF5F601619171913B
:100210006F0180E090E00CD320E030E04AEF54E43E
:10022000BDD32B013C01C501B40102D39B01AC013C
:10023000C301B20169D220E030E04AE754E4FBD1C7
:10024000E981FA816193719381939193FA83E983B0
:10025000FFEFEF1AFF0AD6CFED80FE80C12CD12C24
:10026000C016D106BCF4F101619171918191919117
:100270001F019B01AC0192D320E030E0A901DCD149
:10028000F70161937193819391937F01FFEFCF1AEF
:10029000DF0AE6CF2B813C810FB6F8943EBF0FBE3C
:1002A0002DBF26960FB6F894DEBF0FBECDBFDF91EF
:1002B000CF911F910F91FF90EF90DF90CF90BF9063
:1002C000AF909F908F907F906F905F904F903F90F6
:1002D0002F9008952F923F924F925F926F927F924C
:1002E0008F929F92AF92BF92CF92DF92EF92FF9246
:1002F0000F931F93CF93DF93CDB7DEB7C659D109C4
:100300000FB6F894DEBF0FBECDBF8FEF93E0909392
:10031000050280930402EDE86E2E712C6C0E7D1E9A
:100320002AE0620E711C8E0103571F4FE1D36091CA
:1003300004027091050258D1F801819391938F01C5
:10034000E615F70599F744E150E0BE0167587F4F85
:10035000CE0183579F4F1CDF50E1852E57E2952E2B
:1003600061E5262E312C2C0E3D1EFAE02F0E311C9D
:10037000CC24C394D12CFE01E357FF4F80818EBD66
:100380000DB407FEFDCF11921192E615F705B1F7F6
:100390009E0127583F4F790189010C5E1F4FF701DD
:1003A000608171818281938117D26EBD0DB407FE89
:1003B000FDCFF70111921192119211927F01E01776
:1003C000F10769F7FE01EF5AFF4F1EBC0DB407FE9F
:1003D000FDCF8EB590E081939193E215F305A9F7D7
:1003E0009E012F5F3F4F79018E010B5E1F4F1EBC98
:1003F0000DB407FEFDCF6EB570E080E090E018D23E
:10040000F70161937193819391937F01E017F10755
:1004100071F763968EAD9FAD6397C357DF4F998396
:100420008883CD58D0404DE8442E512C4C0E5D1E93
:10043000F8E04F0E511C9E0123573F4F5901CE014A
:10044000019670DE182FCE0101966CDEFE01EF5A88
:10045000FF4FE10FF11DE10FF11DE080F180FE0182
:10046000EF5AFF4FE80FF11DE80FF11D00811181D8
:100470003FD364E670E0CCD0BC01990F880B990B98
:10048000D9D120E030E048EC52E43ED123E333E31D
:1004900043E35FE335D118160CF445C0A701B8015A
:1004A00080E090E09A01082E02C0359527950A94C5
:1004B000E2F720FD2EC09601082E02C0220F331F46
:1004C0000A94E2F720953095022313239B01082E0E
:1004D00002C0359527950A94E2F720FD10C09601D9
:1004E000082E02C0220F331F0A94E2F720953095A0
:1004F000E222F322019685309105A1F614C09601FF
:10050000082E02C0220F331F0A94E2F7E22AF32AD0
:10051000F1CF9601082E02C0220F331F0A94E2F792
:10052000022B132BD3CFF501F382E28215830483D0
:10053000F4E0AF0EB11CA414B50409F080CF82E042
:10054000E82EF12C9AE0A92EB12CD2D265E070E011
:100550005FD08C01000F111F8DE890E08C0F9D1F64
:10056000080F191FC5D2B50153D0F60102C0EE0F16
:10057000FF1F8A95E2F7CF01F801208131818227A0
:10058000932791838083EA94EF2821F0EE24E3946B
:10059000F12CDBCF45E050E0BE0167587F4FCE0124
:1005A00083579F4FF5DD21E0821A910809F0E3CED1
:1005B00080E090E0CA56DF4F0FB6F894DEBF0FBE62
:1005C000CDBFDF91CF911F910F91FF90EF90DF9002
:1005D000CF90BF90AF909F908F907F906F905F90E3
:1005E0004F903F902F900895AA1BBB1B51E107C06D
:1005F000AA1FBB1FA617B70710F0A61BB70B881FB3
:10060000991F5A95A9F780959095BC01CD01089541
:1006100097FB072E16F4009406D077FD08D0E4DF90
:1006200007FC05D03EF4909581959F4F08957095F5
:1006300061957F4F08955058BB27AA270ED070C1EF
:1006400061D130F066D120F031F49F3F11F41EF4F7
:1006500056C10EF4E095E7FB4CC1E92F72D180F34F
:10066000BA17620773078407950718F071F49EF5AF
:100670008AC10EF4E0950B2EBA2FA02D0B01B90103
:1006800090010C01CA01A0011124FF27591B99F008
:10069000593F50F4503E68F11A16F040A22F232F14
:1006A000342F4427585FF3CF469537952795A79564
:1006B000F0405395C9F77EF41F16BA0B620B730B0B
:1006C000840BBAF09150A1F0FF0FBB1F661F771F7C
:1006D000881FC2F70EC0BA0F621F731F841F48F431
:1006E000879577956795B795F7959E3F08F0B3CFB7
:1006F0009395880F08F09927EE0F979587950895A1
:10070000D4D008F481E008950CD00AC102D140F0A1
:10071000F9D030F021F45F3F19F0EBC0511134C132
:10072000EEC00FD198F39923C9F35523B1F3951B6C
:10073000550BBB27AA2762177307840738F09F5F02
:100740005F4F220F331F441FAA1FA9F333D00E2E71
:100750003AF0E0E830D091505040E695001CCAF7DE
:1007600029D0FE2F27D0660F771F881FBB1F2617A3
:1007700037074807AB07B0E809F0BB0B802DBF0176
:10078000FF2793585F4F2AF09E3F510568F0B1C094
:10079000FBC05F3FECF3983EDCF386957795679559
:1007A000B795F7959F5FC9F7880F911D9695879527
:1007B00097F90895E1E0660F771F881FBB1F621746
:1007C00073078407BA0720F0621B730B840BBA0B04
:1007D000EE1F88F7E0950895BCD088F09F5790F001
:1007E000B92F9927B751A0F0D1F0660F771F881F56
:1007F000991F1AF0BA95C9F712C0B13081F0C3D071
:10080000B1E00895C0C0672F782F8827B85F39F00E
:10081000B93FCCF3869577956795B395D9F73EF4B4
:1008200090958095709561957F4F8F4F9F4F08955C
:10083000E89409C097FB3EF490958095709561957A
:100840007F4F8F4F9F4F9923A9F0F92F96E9BB2730
:100850009395F695879577956795B795F111F8CFAC
:10086000FAF4BB0F11F460FF1BC06F5F7F4F8F4F17
:100870009F4F16C0882311F096E911C0772321F00D
:100880009EE8872F762F05C0662371F096E8862FA5
:1008900070E060E02AF09A95660F771F881FDAF7FC
:1008A000880F9695879597F90895990F0008550F29
:1008B000AA0BE0E8FEEF16161706E807F907C0F0E6
:1008C00012161306E407F50798F0621B730B840BEE
:1008D000950B39F40A2661F0232B242B252B21F4C8
:1008E00008950A2609F4A140A6958FEF811D811D68
:1008F000089597F99F6780E870E060E008959FEFA2
:1009000080EC089500240A941616170618060906A6
:10091000089500240A941216130614060506089575
:10092000092E0394000C11F4882352F0BB0F40F4FD
:10093000BF2B11F460FF04C06F5F7F4F8F4F9F4F3D
:10094000089557FD9058440F551F59F05F3F71F0BF
:100950004795880F97FB991F61F09F3F79F0879526
:100960000895121613061406551FF2CF4695F1DFAF
:1009700008C0161617061806991FF1CF869571053F
:10098000610508940895E894BB2766277727CB0173
:1009900097F908958ADF08F48FEF08950BD0C0CF40
:1009A000B1DF28F0B6DF18F0952309F0A2CFA7CF6A
:1009B0001124EACFC6DFA0F3959FD1F3950F50E045
:1009C000551F629FF001729FBB27F00DB11D639F01
:1009D000AA27F00DB11DAA1F649F6627B00DA11DA7
:1009E000661F829F2227B00DA11D621F739FB00D4D
:1009F000A11D621F839FA00D611D221F749F3327BD
:100A0000A00D611D231F849F600D211D822F762F55
:100A10006A2F11249F5750408AF0E1F088234AF052
:100A2000EE0FFF1FBB1F661F771F881F915050409E
:100A3000A9F79E3F510570F05CCFA6CF5F3FECF366
:100A4000983EDCF3869577956795B795F795E7958A
:100A50009F5FC1F7FE2B880F911D9695879597F99B
:100A600008958F929F92AF92BF92CF92DF92EF92B2
:100A7000FF92CF93DF93EC01688179818A819B811A
:100A8000611571058105910521F464E279ED8BE52D
:100A900097E02DE133EF41E050E038D049015A01B1
:100AA0009B01AC01A7EAB1E44DD06B017C01ACEE37
:100AB000B4EFA501940152D0DC01CB018C0D9D1D3A
:100AC000AE1DBF1DB7FF03C00197A109B0488883C1
:100AD0009983AA83BB839F77DF91CF91FF90EF909B
:100AE000DF90CF90BF90AF909F908F900895B9CF37
:100AF00080E092E0B6CFA0E0B0E080930002909357
:100B00000102A0930202B09303020895052E97FB01
:100B100016F400940FD057FD05D024D007FC02D066
:100B200046F408C050954095309521953F4F4F4F62
:100B30005F4F089590958095709561957F4F8F4F89
:100B40009F4F089531D0A59F900DB49F900DA49F05
:100B5000800D911D11240895B7FFF4CFF3DF821BA0
:100B6000930B0895A1E21A2EAA1BBB1BFD010DC019
:100B7000AA1FBB1FEE1FFF1FA217B307E407F5074D
:100B800020F0A21BB30BE40BF50B661F771F881F29
:100B9000991F1A9469F760957095809590959B01BF
:100BA000AC01BD01CF010895A29FB001B39FC00168
:100BB000A39F700D811D1124911DB29F700D811D89
:0A0BC0001124911D0895F894FFCF51
:040BCA000100000026
:00000001FF
