:1000000071C000008FC000008DC000008BC00000D8
:1000100089C0000087C0000085C0000083C00000C8
:1000200081C000007FC000007DC000007BC00000D8
:1000300079C0000077C0000075C0000073C00000E8
:1000400071C000006FC000006DC000006BC00000F8
:1000500069C0000067C0000065C0000063C0000008
:1000600061C000005FC000005DC000005BC0000018
:1000700059C0000057C0000055C0000053C0000028
:1000800051C000004FC000004DC000004BC0000038
:1000900049C0000047C0000045C0000043C0000048
:1000A00041C000003FC000003DC000003BC0000058
:1000B00039C0000037C0000035C0000033C0000068
:1000C00031C000002FC000002DC000002BC0000078
:1000D00029C0000027C0000025C0000023C0000088
:1000E00021C0000011241FBECFEFD1E2DEBFCDBF83
:1000F00000E00CBF22E0A4E0B2E001C01D92A033FA
:10010000B207E1F712E0A0E0B2E0EEE7F1E100E0D3
:100110000BBF02C007900D92A430B107D9F7AAD443
:100120000C94BD086DCFEF92FF920F931F93CF9366
:10013000DF9316161706A4F48C01EC01660F771FE7
:10014000060F171F0F2EEE24EA94FFE0FF2EF02D6E
:10015000A9D7B70139D789939993C017D107C1F7A8
:10016000DF91CF911F910F91FF90EF9008956F92C3
:100170007F928F929F92AF92BF92CF92DF92EF9237
:10018000FF920F931F93CF93DF934C013B015A01D2
:1001900069012230310514F17A01E4E0EE0EF11C20
:1001A00000E010E0C1E0D0E0F70161917191819130
:1001B00091917F01F801EE0FFF1FEE0FFF1FEA0D77
:1001C000FB1D20813181428153810CD588230CF4A1
:1001D0008E012196CC15DD0539F702C000E010E054
:1001E000000F111FF401E00FF11F80819181F301D5
:1001F00091838083DF91CF911F910F91FF90EF90BA
:10020000DF90CF90BF90AF909F908F907F906F9036
:100210000895EF92FF920F931F93CF93DF938C017A
:10022000EB0140D7BE01D0D67C013CD7BE01CCD675
:10023000EC01F701FF27EE0FFF1FEE0FFF1FE00F8E
:10024000F11F9927880F991F880F991FD801A80FB0
:10025000B91F2D913D914D915C9160817181828199
:100260009381C0D4181614F08E2D01C08C2FDF910D
:10027000CF911F910F91FF90EF90089546E050E0CD
:1002800021E0220F216041505109D9F7DC014D9145
:100290005C91DB01ED91FC9130E0D901AE23BF23ED
:1002A0000024B695A7950794B695A7950794BA2FFD
:1002B000A02D242335232A2B3B2BDC012D933C93AB
:1002C000E07C0024440F551F001C440F551F001CE8
:1002D000452F502D4E2B5F2BFB01518340830895FA
:1002E0003F924F925F926F927F928F929F92AF92C6
:1002F000BF92CF92DF92EF92FF920F931F93CF9313
:10030000DF9300D01F92CDB7DEB76C014B013A01ED
:10031000790101E010E0590182E0A81AB108290131
:1003200081E0481A510834C0B701C30172DF382E8A
:10033000B701C3016EDFE32DF0E0EE0FFF1FEC0D00
:10034000FD1D208131813A832983E82FF0E0EE0FF3
:10035000FF1FEC0DFD1D808191819C838B83A2D6B4
:1003600064E670E031D6BC01990F880B990BD9D4A3
:1003700020E030E048EC52E439D420E030E040E4C2
:100380005FE330D418163CF507C040165106B8F4A8
:100390000E151F0548F226C0A016B106B0F3F801ED
:1003A000EE0FFF1FE80DF91D89819A8191838083EB
:1003B0008B819C81938382830E5F1F4FE9CFF8016D
:1003C000EE0FFF1FE80DF91D89819A8191838083CB
:1003D0000F5F1F4FDDCFBE016D5F7F4FCE010196D6
:1003E0004DDFDACF0F900F900F900F90DF91CF91EC
:1003F0001F910F91FF90EF90DF90CF90BF90AF9043
:100400009F908F907F906F905F904F903F90089556
:10041000CF93DF93EC0146D66CE070E0D5D521E0B8
:1004200030E002C0220F331F8A95E2F7888199815C
:100430002827392739832883DF91CF910895AF92F8
:10044000BF92CF92DF92EF92FF920F931F93CF93C1
:10045000DF936C017B01072E000C880B990B61D494
:100460002DEC3CEC4CE45DE34CD5A9D327D48B01B7
:100470007723ACF0C0E0D0E0AA24A394B12C12D62C
:10048000B701A2D5009711F48A2D9B2D880F991FD3
:100490008C0D9D1DBDDF21960C171D0784F7DF9184
:1004A000CF911F910F91FF90EF90DF90CF90BF9071
:1004B000AF900895CF92DF92EF92FF920F931F9328
:1004C000CF93DF937C01EB016A01890150DE980133
:1004D000A601BE01C70104DFB801CE01B0DFDF9184
:1004E000CF911F910F91FF90EF90DF90CF900895E3
:1004F000CF93DF93EB01FC016081718180E090E09C
:100500000ED420E030E048EC52E4FBD420E030E0B0
:1005100040E859E3F6D420E030E040EA51E4EAD282
:1005200020E030E040E85FE3E5D2688379838A83A6
:100530009B83DF91CF910895EF92FF920F931F93CA
:10054000CF93DF93141615068CF47C01EC01062F73
:10055000172F440F551FE40EF51EB801CE01C8DF5A
:1005600022960C5F1F4FCE15DF05B9F7DF91CF91B3
:100570001F910F91FF90EF9008958F929F92AF92ED
:10058000BF92CF92DF92EF92FF920F931F93CF9380
:10059000DF93CDB7DEB7862E972E5A010DB71EB763
:1005A0007A01EE0CFF1CEE0CFF1C2DB73EB72E1986
:1005B0003F090FB6F8943EBF0FBE2DBF2F5F3F4FD0
:1005C0006901B901B9DF1A141B048CF4F601A82DD6
:1005D000B92DC6018E0D9F1D41915191619171916F
:1005E0004D935D936D937D93E817F907A9F70FB6C7
:1005F000F8941EBF0FBE0DBFDF91CF911F910F91D9
:10060000FF90EF90DF90CF90BF90AF909F908F9032
:100610000895CF93DF93CDB7DEB728970FB6F89440
:10062000DEBF0FBECDBFFA016083718382839383E7
:1006300028960FB6F894DEBF0FBECDBFDF91CF91E5
:1006400008950F931F93CF93DF93CDB7DEB728970D
:100650000FB6F894DEBF0FBECDBFFA018B019C012F
:1006600009831A832B833C8389819A81AB81BC8166
:1006700080839183A283B38328960FB6F894DEBF5C
:100680000FBECDBFDF91CF911F910F910895CF92F3
:10069000DF92EF92FF92AB01BC0120E030E0C12C71
:1006A000D12C76014EBD0DB407FEFDCF8EB590E086
:1006B000022E02C0880F991F0A94E2F7092E000C3F
:1006C000AA0BBB0BC82AD92AEA2AFB2A452F562F88
:1006D000672F7727285F3F4F2032310519F7C70171
:1006E000B601FF90EF90DF90CF9008950F931F9386
:1006F000CF93DF931616170674F48C01EC01660F86
:10070000771F060F171F6991799180E090E0BFDF96
:10071000C017D107C1F7DF91CF911F910F910895B5
:100720000F931F93CF93DF93161617067CF48C015B
:10073000EC01660F771F060F171F60E070E0CB011A
:10074000A6DF69937993C017D107B9F7DF91CF91ED
:100750001F910F910895CF92DF92EF92FF92CF9366
:10076000DF93CDB7DEB728970FB6F894DEBF0FBE84
:10077000CDBFAE014F5F5F4F4CDF20E030E089819D
:100780008EBD0DB407FEFDCF8EB590E0A0E0B0E0C9
:10079000022E04C0880F991FAA1FBB1F0A94D2F70C
:1007A000C82AD92AEA2AFB2A89819A81AB81BC818D
:1007B000892F9A2FAB2FBB2789839A83AB83BC8366
:1007C000285F3F4F20323105D1F6AE014B5F5F4FBE
:1007D000C701B60136DF6D817E818F8198852896AD
:1007E0000FB6F894DEBF0FBECDBFDF91CF91FF9063
:1007F000EF90DF90CF900895EF92FF920F931F93A9
:10080000CF93DF931616170684F47B01082F192F58
:10081000C0E0D0E0F80161917191819191918F01D7
:100820009ADF2196CE15DF05A9F7DF91CF911F91B1
:100830000F91FF90EF900895EF92FF920F931F9307
:10084000CF93DF93161617069CF47B01082F192F00
:10085000C0E0D0E060E070E0CB017DDFF8016193A3
:100860007193819391938F012196CE15DF0591F7B6
:10087000DF91CF911F910F91FF90EF900895E1E8E4
:10088000F0E0808181608083E4E8F0E011821082F2
:10089000808191810AC4089586E084B987E087B990
:1008A00088B981E58CBD089598B1976098B998B1E1
:1008B00021E030E002C0220F331F8A95E2F7209535
:1008C000292328B908950F931F93CF93DF938C01A9
:1008D000C0E0D0E0CE01E8DF64E070E0C8018CDF6A
:1008E0002196C330D105B1F7DF91CF911F910F91C0
:1008F00008950F931F93CF93DF938C01C0E0D0E056
:10090000CE01D2DF64E070E0C801F0DE2196C33092
:10091000D105B1F7DF91CF911F910F910895CF923B
:10092000DF92EF92FF920F931F93CF93DF936C01AF
:1009300080910A0290910B02F6019183808304E07A
:1009400010E0C0E0D0E0EE24E394F12CC7010C2EBF
:1009500002C0880F991F0A94E2F720B130E02823E3
:100960003923232BD1F3CE019FDFB7018EE092E034
:10097000D7DE219620910E0230910F02C80111237B
:100980000CF40396FC01F595E795F595E795EE0FC8
:10099000FF1FEC0DFD1D318320830C5F1F4FC33003
:1009A000D105A1F6DF91CF911F910F91FF90EF90AC
:1009B000DF90CF900895AF92BF92CF92DF92EF92E7
:1009C000FF920F931F93CF93DF9300D01F92CDB769
:1009D000DEB75C0180912C0290912D02A0912E0235
:1009E000B0912F02F50180839183A283B383689431
:1009F000EE24E2F8F12C00E010E0CC24C394D12CDA
:100A0000C601002E02C0880F991F0A94E2F720B198
:100A100030E028233923232BD1F3C80145DFB60169
:100A2000CE01019609DF0F5F1F4FC701FF200CF4B5
:100A300003968C7FF501E80FF91F89819A81AB81BC
:100A4000BC8180839183A283B383F4E0EF0EF11C19
:100A500003301105A9F60F900F900F900F90DF91C2
:100A6000CF911F910F91FF90EF90DF90CF90BF90AB
:100A7000AF90089504DF10DF81B1886F81B964E021
:100A800070E080E192E04FDB44E050E06CE172E026
:100A900080E192E072DD64E070E080E192E029DFC5
:100AA00064E070E08CE192E00EDF21E030E04CE1A8
:100AB00052E06AE072E080E192E0FCDC41E050E06C
:100AC0006CE272E08AE092E058DD80E192E027DF9C
:100AD0008CE192E070DF8091040290910502019612
:100AE000909305028093040280FF02C0139AD3CF33
:100AF0001398D1CF5058BB27AA270ED0B1C1A2D18D
:100B000030F0A7D120F031F49F3F11F41EF497C1CB
:100B10000EF4E095E7FB64C1E92FB3D180F3BA1777
:100B2000620773078407950718F071F49EF5E2C118
:100B30000EF4E0950B2EBA2FA02D0B01B9019001F8
:100B40000C01CA01A0011124FF27591B99F0593F3C
:100B500050F4503E68F11A16F040A22F232F342F84
:100B60004427585FF3CF469537952795A795F040D2
:100B70005395C9F77EF41F16BA0B620B730B840BE7
:100B8000BAF09150A1F0FF0FBB1F661F771F881F9F
:100B9000C2F70EC0BA0F621F731F841F48F48795F7
:100BA00077956795B795F7959E3F08F0B3CF9395E6
:100BB000880F08F09927EE0F97958795089583D1B0
:100BC00080F09F3740F491110EF495C160E070E021
:100BD00080E89FE3089526F01B16611D711D811D9D
:100BE00005C11FC1D9D008F481E008950CD038C1E7
:100BF00030D140F027D130F021F45F3F19F0F0C040
:100C0000511179C11CC13DD198F39923C9F35523E2
:100C1000B1F3951B550BBB27AA27621773078407EF
:100C200038F09F5F5F4F220F331F441FAA1FA9F3A5
:100C300033D00E2E3AF0E0E830D091505040E69597
:100C4000001CCAF729D0FE2F27D0660F771F881FF8
:100C5000BB1F261737074807AB07B0E809F0BB0BE7
:100C6000802DBF01FF2793585F4F2AF09E3F51050B
:100C700068F0B6C040C15F3FECF3983EDCF3869568
:100C800077956795B795F7959F5FC9F7880F911D81
:100C90009695879597F90895E1E0660F771F881F6D
:100CA000BB1F621773078407BA0720F0621B730B20
:100CB000840BBA0BEE1F88F7E095089504D0689472
:100CC000B11119C10895E5D088F09F5790F0B92F60
:100CD0009927B751A0F0D1F0660F771F881F991F91
:100CE0001AF0BA95C9F712C0B13081F003D1B1E062
:100CF000089500C1672F782F8827B85F39F0B93F72
:100D0000CCF3869577956795B395D9F73EF4909592
:100D10008095709561957F4F8F4F9F4F0895E89410
:100D200009C097FB3EF490958095709561957F4F33
:100D30008F4F9F4F9923A9F0F92F96E9BB279395E1
:100D4000F695879577956795B795F111F8CFFAF4F1
:100D5000BB0F11F460FF1BC06F5F7F4F8F4F9F4F22
:100D600016C0882311F096E911C0772321F09EE880
:100D7000872F762F05C0662371F096E8862F70E0E6
:100D800060E02AF09A95660F771F881FDAF7880FC0
:100D90009695879597F90895990F0008550FAA0B16
:100DA000E0E8FEEF16161706E807F907C0F012167E
:100DB0001306E407F50798F0621B730B840B950B81
:100DC00039F40A2661F0232B242B252B21F40895D6
:100DD0000A2609F4A140A6958FEF811D811D089573
:100DE00097F99F6780E870E060E00895882371F4C8
:100DF000772321F09850872B762F07C0662311F4B4
:100E000099270DC09051862B70E060E02AF09A95EA
:100E1000660F771F881FDAF7880F9695879597F9E1
:100E200008959F3F31F0915020F48795779567950D
:100E3000B795880F911D9695879597F908959FEF1F
:100E400080EC089500240A94161617061806090661
:100E5000089500240A941216130614060506089530
:100E6000092E0394000C11F4882352F0BB0F40F4B8
:100E7000BF2B11F460FF04C06F5F7F4F8F4F9F4FF8
:100E8000089557FD9058440F551F59F05F3F71F07A
:100E90004795880F97FB991F61F09F3F79F08795E1
:100EA0000895121613061406551FF2CF4695F1DF6A
:100EB00008C0161617061806991FF1CF86957105FA
:100EC000610508940895E5DFA0F0BEE7B91788F43E
:100ED000BB279F3860F41616B11D672F782F88271F
:100EE000985FF7CF869577956795B11D939596395D
:100EF000C8F30895E894BB2766277727CB0197F9B5
:100F000008950BD0ADCF9EDF28F0A3DF18F0952316
:100F100009F066CF94CF1124EECFB3DFA0F3959FF5
:100F2000D1F3950F50E0551F629FF001729FBB27D0
:100F3000F00DB11D639FAA27F00DB11DAA1F649F7C
:100F40006627B00DA11D661F829F2227B00DA11D2F
:100F5000621F739FB00DA11D621F839FA00D611DB5
:100F6000221F749F3327A00D611D231F849F600DD6
:100F7000211D822F762F6A2F11249F5750408AF00F
:100F8000E1F088234AF0EE0FFF1FBB1F661F771F9B
:100F9000881F91505040A9F79E3F510570F020CF17
:100FA000AACF5F3FECF3983EDCF386957795679583
:100FB000B795F795E7959F5FC1F7FE2B880F911DB9
:100FC0009695879597F9089597FB072E16F4009448
:100FD00006D077FD08D00BD007FC05D03EF49095E5
:100FE00081959F4F0895709561957F4F0895AA1B35
:100FF000BB1B51E107C0AA1FBB1FA617B70710F004
:10100000A61BB70B881F991F5A95A9F78095909535
:10101000BC01CD0108958F929F92AF92BF92CF9263
:10102000DF92EF92FF92CF93DF93EC016881798199
:101030008A819B81611571058105910521F464E226
:1010400079ED8BE597E02DE133EF41E050E038D0CA
:1010500049015A019B01AC01A7EAB1E44DD06B01F3
:101060007C01ACEEB4EFA501940152D0DC01CB01C0
:101070008C0D9D1DAE1DBF1DB7FF03C00197A109BB
:10108000B04888839983AA83BB839F77DF91CF91F0
:10109000FF90EF90DF90CF90BF90AF909F908F9098
:1010A0000895B9CF80E092E0B6CFA0E0B0E08093A1
:1010B000000290930102A0930202B09303020895EC
:1010C000052E97FB16F400940FD057FD05D024D0C1
:1010D00007FC02D046F408C0509540953095219504
:1010E0003F4F4F4F5F4F0895909580957095619554
:1010F0007F4F8F4F9F4F089531D0A59F900DB49F84
:10110000900DA49F800D911D11240895B7FFF4CF79
:10111000F3DF821B930B0895A1E21A2EAA1BBB1BBF
:10112000FD010DC0AA1FBB1FEE1FFF1FA217B307B3
:10113000E407F50720F0A21BB30BE40BF50B661FC9
:10114000771F881F991F1A9469F76095709580958D
:1011500090959B01AC01BD01CF010895A29FB00104
:10116000B39FC001A39F700D811D1124911DB29FDB
:0E117000700D811D1124911D0895F894FFCF7C
:04117E00010000006C
:00000001FF
