:1000000071C000008EC000008CC000008AC00000DB
:1000100088C0000086C0000084C0000082C00000CC
:1000200080C000007EC000007CC000007AC00000DC
:1000300078C0000076C0000074C0000072C00000EC
:1000400070C000006EC000006CC000006AC00000FC
:1000500068C0000066C0000064C0000062C000000C
:1000600060C000005EC000005CC000005AC000001C
:1000700058C0000056C0000054C0000052C000002C
:1000800050C000004EC000004CC000004AC000003C
:1000900048C0000046C0000044C0000042C000004C
:1000A00040C000003EC000003CC000003AC000005C
:1000B00038C0000036C0000034C0000032C000006C
:1000C00030C000002EC000002CC000002AC000007C
:1000D00028C0000026C0000024C0000022C000008C
:1000E00020C0000011241FBECFEFD1E2DEBFCDBF84
:1000F00000E00CBF22E0A4E0B2E001C01D92A238F3
:10010000B207E1F712E0A0E0B2E0E0EEF4E000E0D8
:100110000BBF02C007900D92A430B107D9F711D1DF
:10012000DDC16ECFCF93DF93CDB7DEB728970FB683
:10013000F894DEBF0FBECDBFFA0160837183828366
:10014000938328960FB6F894DEBF0FBECDBFDF9124
:10015000CF9108950F931F93CF93DF93CDB7DEB761
:1001600028970FB6F894DEBF0FBECDBFFA018B0102
:100170009C0109831A832B833C8389819A81AB81FB
:10018000BC8180839183A283B38328960FB6F894B1
:10019000DEBF0FBECDBFDF91CF911F910F910895AC
:1001A000CF92DF92EF92FF92AB01BC0120E030E0F2
:1001B000C12CD12C76014EBD0DB407FEFDCF8EB5FE
:1001C00090E0022E02C0880F991F0A94E2F7092ED0
:1001D000000CAA0BBB0BC82AD92AEA2AFB2A452FF6
:1001E000562F672F7727285F3F4F2032310519F7A9
:1001F000C701B601FF90EF90DF90CF9008950F9365
:100200001F93CF93DF93161617067CF48C01EC0135
:10021000660F771F060F171F60E070E0CB01C0DF8D
:1002200069937993C017D107B9F7DF91CF911F91E7
:100230000F910895CF92DF92EF92FF92CF93DF93C9
:10024000CDB7DEB728970FB6F894DEBF0FBECDBF8F
:10025000AE014F5F5F4F66DF20E030E089818EBDE9
:100260000DB407FEFDCF8EB590E0A0E0B0E0022E09
:1002700004C0880F991FAA1FBB1F0A94D2F7C82A6F
:10028000D92AEA2AFB2A89819A81AB81BC81892FEC
:100290009A2FAB2FBB2789839A83AB83BC83285FBC
:1002A0003F4F20323105D1F6AE014B5F5F4FC701A2
:1002B000B60150DF6D817E818F81988528960FB6BB
:1002C000F894DEBF0FBECDBFDF91CF91FF90EF90CE
:1002D000DF90CF900895EF92FF920F931F93CF93EB
:1002E000DF93161617069CF47B01082F192FC0E028
:1002F000D0E060E070E0CB019DDFF8016193719385
:10030000819391938F012196CE15DF0591F7DF91AF
:10031000CF911F910F91FF90EF90089588E084B9DD
:1003200080E48CBD0895E1E8F0E080818160808305
:10033000E4E8F0E01182108280819181029666C02B
:100340000895F1DFEBDF81B1836081B910981198D6
:100350006CE070E082E192E052DF6CE070E086E4F5
:1003600092E0B9DF8091040290910502019690938A
:10037000050280930402ECCF8F929F92AF92BF92BE
:10038000CF92DF92EF92FF92CF93DF93EC016881DF
:1003900079818A819B81611571058105910521F41F
:1003A00064E279ED8BE597E02DE133EF41E050E039
:1003B00038D049015A019B01AC01A7EAB1E44DD004
:1003C0006B017C01ACEEB4EFA501940152D0DC01CD
:1003D000CB018C0D9D1DAE1DBF1DB7FF03C0019746
:1003E000A109B04888839983AA83BB839F77DF9153
:1003F000CF91FF90EF90DF90CF90BF90AF909F9004
:100400008F900895B9CF80E092E0B6CFA0E0B0E041
:100410008093000290930102A0930202B093030222
:100420000895052E97FB16F400940FD057FD05D0C4
:1004300024D007FC02D046F408C050954095309572
:1004400021953F4F4F4F5F4F089590958095709540
:1004500061957F4F8F4F9F4F089531D0A59F900D8D
:10046000B49F900DA49F800D911D11240895B7FF96
:10047000F4CFF3DF821B930B0895A1E21A2EAA1B7F
:10048000BB1BFD010DC0AA1FBB1FEE1FFF1FA21744
:10049000B307E407F50720F0A21BB30BE40BF50B41
:1004A000661F771F881F991F1A9469F760957095CA
:1004B000809590959B01AC01BD01CF010895A29F4D
:1004C000B001B39FC001A39F700D811D1124911D28
:1004D000B29F700D811D1124911D0895F894FFCFD6
:0404E0000100000017
:00000001FF
