:1000000002C1000031C100002FC100002DC100005D
:100010002BC1000029C1000027C1000025C100003C
:1000200023C1000021C100001FC100001DC100004C
:100030001BC1000019C1000017C1000015C100005C
:1000400013C1000011C100000FC100000DC100006C
:100050000BC1000009C1000007C100000C945C0D39
:1000600003C100000C949E0C0C94750CFDC00000A4
:10007000FBC00000F9C00000F7C00000F5C00000A0
:10008000F3C00000F1C00000EFC00000EDC00000B0
:10009000EBC00000E9C00000E7C00000E5C00000C0
:1000A000E3C00000E1C00000DFC00000DDC00000D0
:1000B000DBC00000D9C00000D7C00000D5C00000E0
:1000C000D3C00000D1C00000CFC00000CDC00000F0
:1000D000CBC00000C9C00000C7C00000C5C0000000
:1000E000C3C00000020D050DF40CF80CFC0C3C0D17
:1000F000090D0D0D130D170D1B0D210D250D290DCE
:100100003C0D2F0D330D370D7C3C3E5E2B3D3F2FBC
:100110005B5D3B2C2A225C000000220025002800A9
:100120002B002E00310034000201000005010801FF
:100130000B0105050505070508080808020202026B
:100140000A0A080804040404010101010101010173
:100150000303030303030303040707070C0C0C0C3E
:100160000C0C0C0C02020202060606060606060627
:100170000B0B0B0B0B0B0B0B0102102020080810B4
:100180002040102040800201020108040201010207
:1001900004081020408080402010080402018004E0
:1001A000020180402010080402010804020101023B
:1001B0000408102040800102040810204080000044
:1001C0000A0B02090C0D0E080703040100000000D1
:1001D000000000000000000000000000000000001F
:1001E00000000000000000000000121110000000DC
:1001F00000000000000000000000000000000000FF
:10020000000000005C1011241FBECFEFD1E2DEBF62
:10021000CDBF00E00CBF12E0A0E0B2E0E6EFF3E2F9
:1002200000E00BBF02C007900D92AE37B107D9F7BF
:1002300025E0AEE7B2E001C01D92AB37B207E1F7AF
:1002400011E0C3E0D1E000E006C021970109802F52
:10025000FE010E94A410C230D10780E00807A9F770
:100260000E944B0F0C94F911CBCE8EBD00000DB443
:1002700007FEFDCF8EB508958FEFF7CFFC01DB01B0
:1002800012968D919C911397938382838EE392E0D3
:100290009183808314968C911497848315968C9106
:1002A0001597858316964D915D916D917C91199767
:1002B00046835783608771871A964D915D916D9142
:1002C0007C911D9742875387648775871E964D9151
:1002D0005D916D917C91519746875787608B718BAB
:1002E00052968C915297828B53964D915D916D9160
:1002F0007C915697438B548B658B768B57964D919B
:100300005D916D917C915A97478B508F618F728F61
:100310005B968D919C915C97948F838F0895DC01FF
:100320005996ED91FC915A973097B9F08389948949
:10033000A589B6894285538564857585841B950B8F
:10034000A60BB70B811520E89207A105B10538F07F
:100350008FEF9FE7A0E0B0E0089580E090E008957F
:10036000CF93DF931F92CDB7DEB76983DC01ED91A8
:10037000FC910280F381E02D41E050E0BE016F5F0F
:100380007F4F19950F90DF91CF910895CF93DF9311
:10039000EC018D818823A1F18C8187FF2DC06E85B2
:1003A0007F858889998941E00E94E10D882341F188
:1003B000EA8980E2E89FF0011124DF01AE57BD4FCA
:1003C0001097F1F08D81823050F44B895C896D89F2
:1003D0007E895C964D935D936D937C935F978F8937
:1003E000988DA98DBA8DEE57FD4F938F828FB58B67
:1003F000A48B8C818F778C83DF91CF910C94A60D89
:1004000080E0DF91CF910895CF93DF93EC01BEDFC1
:10041000882311F01D8281E0DF91CF910895FC01C6
:10042000818D928D009709F0B1CF08958F929F92A0
:10043000AF92BF92CF92DF92EF92FF920F931F93F2
:10044000CF93DF93EC018D81811102C080E077C0F2
:100450000B891C892D893E89041715072607370744
:10046000A8F36A017B01823029F4CA86DB86EC8618
:10047000FD860DC0C114D104E104F10451F41E82C3
:100480001F82188619861A861B861C861D8681E0A7
:1004900056C08A849B84AC84BD84EB8DFC8D2585FD
:1004A00030E0275F3F4FB501A40141505109610978
:1004B0007109022E04C076956795579547950A9461
:1004C000D2F7D701C6010197A109B10904C0B695B9
:1004D000A795979587952A95D2F784179507A6072C
:1004E000B70720F089288A288B2849F44F89588D2E
:1004F000698D7A8D4E835F836887798704C0841BFA
:10050000950BA60BB70B4C015D018E010A5F1F4FC7
:1005100081149104A104B10409F4A7CF4E815F8135
:100520006885798598018B8D9C8D0E94C80E91E01D
:10053000891A9108A108B1088111EACF87CFDF910C
:10054000CF911F910F91FF90EF90DF90CF90BF90D0
:10055000AF909F908F9008954F925F926F927F928D
:100560008F929F92AF92BF92CF92DF92EF92FF92C3
:100570000F931F93CF93DF93CDB7DEB728970FB6B6
:10058000F894DEBF0FBECDBF7C0180E2689F6001A2
:10059000112496012E573D4FD9011B969C919171C4
:1005A00021F0842F827409F0D1C0142FF701628BDF
:1005B0008091000290910102A0910202B091030289
:1005C00086879787A08BB18BF601EE57FD4F448944
:1005D000558960E070E0BA0155274427D701579646
:1005E0004D935D936D937C935A97828D938DA0E08C
:1005F000B0E0482B592B6A2B7B2BD70157964D9394
:100600005D936D937C935A97D9011B968C91887159
:1006100061F4848D958DA68DB78DF701838B948BB6
:10062000A58BB68B81E085834FC0803109F08EC0E9
:10063000D7015B96CD90DC905C974D835E836F8392
:100640007887812C912C5401412C82E0582E612C0A
:10065000712C4D815E816F8178859E012B5F3F4FAC
:10066000C6010E94C80E882309F470C0D301C201DC
:10067000F601058404C0880F991FAA1FBB1F0A94A6
:10068000D2F7880E991EAA1EBB1E4D815E816F8116
:1006900078858789803129F088EF9FEFAFEFBFE041
:1006A00004C088EF9FEFA0E0B0E0481759076A0741
:1006B0007B0778F2D70153968D929D92AD92BC92B2
:1006C000569784E015968C93812F8F70F701848361
:1006D0001682178210861186128613861486158656
:1006E00016FF36C08581813089F511FF2FC0F701D3
:1006F0004389548965897689452B462B472B09F414
:1007000062C040E050E0BA01C70190DE8823F1F0FA
:10071000D70157968D909D90AD90BC905A975B965F
:10072000CD90DC905C9782E090E0A0E0B0E0F60134
:1007300080839183A283B3839E012F5F3F4FB501D6
:10074000A401C6010E94C80E811104C080E03BC014
:1007500081E039C000E010E09801B501A401C601B4
:100760000E94290E882391F389809A80AB80BC80F7
:10077000D60157968C91803129F088EF9FEFAFEF2B
:10078000BFE004C088EF9FEFA0E0B0E088169906B4
:10079000AA06BB0688F2D70157961D921D921D929C
:1007A0001C925A97F701138A148A158A168A848133
:1007B00080688483C701EADD882341F240E050E08D
:1007C000BA01C70133DE28960FB6F894DEBF0FBE1C
:1007D000CDBFDF91CF911F910F91FF90EF90DF90F0
:1007E000CF90BF90AF909F908F907F906F905F90D1
:1007F0004F9008953F924F925F926F927F928F92A7
:100800009F92AF92BF92CF92DF92EF92FF920F939F
:100810001F93CF93DF93CDB7DEB72C970FB6F89425
:10082000DEBF0FBECDBF5C01DC015B968D909C905E
:100830005C971696CD90DD90ED90FC901997C114C1
:10084000D104E104F10439F0BFEFCB1ADB0AEB0A63
:10085000FB0A312C07C0F401C080D180E280F38014
:1008600033243394F40181859285A385B4859C015A
:10087000AD012F5F3F4F4F4F5F4F29873A874B871F
:100880005C87260137011D821E821F821886F401B3
:1008900081859285A385B4852D813E814F815885C0
:1008A000281739074A075B0708F063C089859A85CE
:1008B000AB85BC858C159D05AE05BF0550F482E067
:1008C000C82ED12CE12CF12C92E0492E512C612C18
:1008D000712C9E012F5F3F4FB701A601C4010E94FA
:1008E000C80E882309F445C089819A81AB81BC81F7
:1008F000892B8A2B8B2B41F0260137019FEF491A58
:10090000590A690A790A05C0C414D504E604F70433
:1009100091F02D813E814F8158852F5F3F4F4F4F82
:100920005F4F2D833E834F8358873FEFC31AD30A0F
:10093000E30AF30AACCF0FEF1FEF2FEF3FE0B30155
:10094000A201C4010E94290E882399F0D5011696B0
:100950004D915D916D917C911997411551056105FE
:10096000710549F093018201C4010E94290E811191
:1009700002C080E02AC0D50116964D925D926D921C
:100980007C921997332051F0D301C2010196A11D29
:10099000B11DF40180839183A283B383F50187891C
:1009A000908DA18DB28D892B8A2B8B2B69F4D5016B
:1009B00057964D925D926D927C925A9714968C91B7
:1009C0001497806814968C9381E02C960FB6F89457
:1009D000DEBF0FBECDBFDF91CF911F910F91FF9072
:1009E000EF90DF90CF90BF90AF909F908F907F90CF
:1009F0006F905F904F903F9008950F931F93CF9308
:100A0000DF93EB010E94500D8B0136DC8F3F49F0E4
:100A10000E94500D601B710B6C177D07B0F380E0D6
:100A200001C081E0DF91CF911F910F91089561E0A6
:100A3000FC018481B9D780917E02811110927E02DF
:100A40000895CF93DF93EC018E81882379F08F8115
:100A500098859C012F5F3F4F38872F8382309240CB
:100A600010F40ADCF4CFCE01E2DF1E82DF91CF91D9
:100A70000895CF92DF92FF920F931F93CF93DF934E
:100A800000D01F92CDB7DEB76C01F62E29833A83D2
:100A90004B835C83D6DF80917E0229813A814B8132
:100AA0005C81811109C081E080937E029091820473
:100AB000809183049CBD8DBD60E0F6018481298313
:100AC0003A834B835C8370D76CE271E0C60195DF9B
:100AD0008F2D8064CADB08E110E05C814B813A8194
:100AE0002981DA01C901002E04C0B695A795979512
:100AF00087950A94D2F729833A834B835C83B5DBCD
:100B00000850110929813A814B815C81083FFFEF30
:100B10001F0739F7FF2029F088E0F81204C087E8A2
:100B200003C085E901C08FEFA0DB10E0A5DBF60173
:100B3000828787FF04C01F3F11F01F5FF7CF0F9020
:100B40000F900F900F90DF91CF911F910F91FF9019
:100B5000DF90CF900895EF92FF920F931F93CF9362
:100B6000DF93EC017B018A011B821A8288EE93E0FD
:100B7000A0E0B0E08C839D83AE83BF838EE092E0E3
:100B8000998388838DE190E00E94AC109A8F898FC1
:100B9000009779F02DE1F701DC0101900D922A9583
:100BA000E1F74CE050E0B801CE010C960E94EA114A
:100BB000188EDF91CF911F910F91FF90EF900895C4
:100BC000AF92BF92CF92DF92EF92FF920F931F935B
:100BD000CF93DF93EC016901C801820F931F81302D
:100BE000924008F068C08E81882371F088819981D5
:100BF000AA81BB81481759076A077B0729F48F81AF
:100C00009885C816D90688F5488359836A837B83FB
:100C10008B85833039F089E0440F551F661F771F9D
:100C20008A95D1F79A01AB0161E1CE0122DF8823D9
:100C300019F083E08D833FC033D75B011DDB8A87CA
:100C40008F3F41F42DD76A197B096D327140B0F3A3
:100C50008FE003C08E3F29F08DE08D83CE01E7DE6B
:100C60002AC018861F8281E08E838F8198858C151B
:100C70009D0538F401DB8F819885019698878F83D5
:100C8000F4CF6701E00EF11ECE14DF0429F0F4DA90
:100C9000F60181936F01F8CF8F819885080F191F96
:100CA00018870F838985882319F00115124038F0C1
:100CB000CE01C7DE04C0CE01BADE80E001C081E013
:100CC000DF91CF911F910F91FF90EF90DF90CF9028
:100CD000BF90AF9008953F924F925F926F927F9234
:100CE0008F929F92AF92BF92CF92DF92EF92FF923C
:100CF0000F931F93CF93DF931F92CDB7DEB7FC0105
:100D00008581882309F4D5C0848180FFD2C0332433
:100D10003394438954896589768982859385A4852E
:100D2000B585481759076A077B0709F4312C6F010D
:100D3000832D90E09E012F5F3F4F49013F0136E038
:100D4000630E711C40907F0250908002892B09F441
:100D50007BC0D6011A964D915D916D917C911D9746
:100D60005A01B1E0BB22F60125817A018B0189E0AD
:100D700016950795F794E7948A95D1F7838D948D0E
:100D8000223061F4FC01828D938DA48DB58DBC0160
:100D9000CD016E0D7F1D801F911F43C0DC01149695
:100DA0002C912150122F1E21A114B104C9F411114C
:100DB00017C0452B462B472B51F4F6018789908DA0
:100DC000A18DB28D86839783A087B18709C04681A4
:100DD0005781608571859301DBD7882309F469C049
:100DE000F601238D348D86819781A085B185029788
:100DF000A109B109F901058404C0880F991FAA1F30
:100E0000BB1F0A94D2F74685578560897189840F84
:100E1000951FA61FB71FBC01CD01610F711D811D5C
:100E2000911DD60114962C9126FF13C0009100024B
:100E300010910102209102023091030260177107A4
:100E40008207930741F505C0332099F1898190E02D
:100E500032C040E0B6D6882361F1F501EE57FD4F70
:100E6000D401CF010196E817F90719F021912D93CC
:100E7000FACFEFEF8E1A9E0AF60182859385A4853C
:100E8000B5850196A11DB11D82879387A487B5877B
:100E900080E090E05BCF740101E010E09501AB01D0
:100EA000BC01C2018DDE882321F0BFEF8B1A9B0AA3
:100EB000E3CF8FEF9FEF0F90DF91CF911F910F91B5
:100EC000FF90EF90DF90CF90BF90AF909F908F906A
:100ED0007F906F905F904F903F9008954F925F92F8
:100EE0006F927F92AF92BF92CF92DF92EF92FF927A
:100EF0000F931F93CF93DF93CDB7DEB72B970FB62A
:100F0000F894DEBF0FBECDBF7C01CE0101966C010F
:100F1000FC0190E28BE08C0D91938E13FDCFDA01F2
:100F200030E047E09D91992339F19E3219F0E8E0D5
:100F3000F1E00AC04A3009F46CC138E04AE0F2CF6F
:100F40003196891709F465C184918111F9CF43174E
:100F500008F45FC18FED890F8E3508F05AC181E02A
:100F6000830FF601E30FF11D3FE9390F3A3108F421
:100F700090529083382FD6CF8981803209F449C1AD
:100F8000B22E8B01DB015B968D919C915C97F701F2
:100F9000948F838F16961D921D921D921C92199705
:100FA000FB011286138614861586712CF801828542
:100FB0009385A485B5854389548965897689841785
:100FC0009507A607B70708F060C025E0B695A79576
:100FD000979587952A95D1F7F82FFF706F2ED80136
:100FE00015968C91823008F414C1C80174DE97FD07
:100FF00010C1F80182859385A485B5854F96A11D02
:10100000B11D82879387A487B587F0E26F9EC001E8
:101010001124BC016E577D4F6115710509F4F9C0AB
:10102000DB012C91222319F0253EC1F427C0711059
:101030000EC0F701628A4091000250910102609156
:1010400002027091030246875787608B718BFC0107
:10105000EE57FD4F8081811113C015C04BE050E069
:10106000C6010E94DD11892B09F0A0CF8B2D807362
:10107000803309F4CEC04B2D662DC8C07720C9F24D
:101080007724739493CF772473948B2D827182315C
:1010900009F0BFC07720C9F0D7011E966D917D91F0
:1010A0008D919C91519741E08CD5882309F4B1C072
:1010B000F7016289F0E26F9FB00111246E577D4FF6
:1010C0006115710509F077C0A4C0D80115968C91FF
:1010D000823009F49EC0C8018DDB882309F499C0D1
:1010E000D8015B96ED91FC915C9716964D905D90C2
:1010F0006D907C901997B2E04B1A51086108710805
:10110000058404C0440C551C661C771C0A94D2F755
:1011100086859785A089B189480E591E6A1E7B1E57
:10112000A480E1E04E1A510861087108AA2001F17B
:101130000DD5882309F46DC0E2E8F2E0119224E0B5
:10114000E238F207D9F7D301C2018A0D911DA11D22
:10115000B11D8093000290930102A0930202B0930C
:10116000030280918102816080938102AA94DECF84
:10117000D8015B96ED91FC915C9780E092E0A0E055
:10118000B0E0058404C0880F991FAA1FBB1F0A94F2
:10119000D2F7F8014389548965897689840F951FB0
:1011A000A61FB71F838B948BA58BB68BD701529646
:1011B0001C9262E872E080E2FB0111928A95E9F7E5
:1011C0008BE0F601DB0101900D928A95E1F781E257
:1011D00098E2DB0151969C938E93509720E038E083
:1011E0001F963C932E931E9753969C938E935297E3
:1011F00059969C938E93589757963C932E93569757
:10120000A5D4882331F04B2DF7016289C701A4D9F9
:1012100001C080E02B960FB6F894DEBF0FBECDBFA5
:10122000DF91CF911F910F91FF90EF90DF90CF90C2
:10123000BF90AF907F906F905F904F900895FC01AA
:10124000818D928D009709F046CD8FEF9FEF089525
:101250000F931F93CF93DF93FC01818D928D0097A5
:10126000A9F0EF0138DD8C010F3F8FEF180789F0EF
:10127000898D9A8DFC014285538564857585415021
:10128000510961097109D2D8C80105C080E090E018
:1012900002C08FEF9FEFDF91CF911F910F910895C3
:1012A000EF92FF920F931F93CF93DF93EC0179019D
:1012B000411551056105710511F482E139C08B8535
:1012C000833039F089E0440F551F661F771F8A95D8
:1012D000D1F79A01AB0168E1CE01CBDB882311F095
:1012E00084E026C08EEF0E94350187018EEFF81A48
:1012F000F80181918F010E9435010E151F05C1F77C
:101300008FEF0E9435018FEF0E9435010E943C0152
:101310008A878F71853029F081E18D83CE0187DB4B
:1013200008C068E572E0CE0168DB811106C085E186
:101330008D83CE017CDB80E011C020E030E0A9018C
:101340006DE0CE0196DB811104C00E943C01882330
:1013500011F084E1EDCFCE016ADB81E0DF91CF9126
:101360001F910F91FF90EF9008952F923F924F920F
:101370005F926F927F928F929F92AF92BF92CF9225
:10138000DF92EF92FF920F931F93CF93DF9300D0E2
:1013900000D0CDB7DEB78C015B011A01DC011596D8
:1013A0008C9115978130C1F414968C9181FF14C0F3
:1013B00082FF1AC0F801438954896589768982853C
:1013C0009385A485B58584179507A607B70761F0AF
:1013D000C8012CD8811108C081E090E0F801938306
:1013E000828380E090E039C1610120917F023091D9
:1013F00080023E832D8381C0D8015B968D919C91A4
:101400005C97FC0174802FEF270D2A013B0139E026
:1014100076946794579447943A95D1F7722E742036
:101420007A01F1E0FF22772009F473C080E092E0B6
:101430008E199F0946018C159D0508F44C01D801B1
:101440005B962D913C915C9716968D919D910D9098
:10145000BC91A02D0297A109B109F901058404C02E
:10146000880F991FAA1FBB1F0A94D2F7468557857C
:1014700060897189840F951FA61FB71F9C01AD015C
:10148000270D311D411D511D29013A01811432E002
:10149000930609F083C08091000290910102A0910F
:1014A0000202B091030284159505A605B70559F40B
:1014B0008FEF9FEFDC018093000290930102A093D5
:1014C0000202B09303029501B301A2018D819E81B6
:1014D000E7DE882309F480CF9EEFB91AC818D9082F
:1014E000F80182859385A485B585880D991DA11D78
:1014F000B11D82879387A487B587D8011A964D912D
:101500005D916D917C911D97C114D10409F074CF48
:1015100083C0E114F10409F089CF16964D915D91D5
:101520006D917C911997411551056105710559F42B
:1015300057968D919D910D90BC91A02D0097A1057E
:10154000B10531F520C09E012F5F3F4F21D4882384
:1015500009F448CF89819A81AB81BC81F801238D40
:10156000348DF9012789203129F048EF5FEF6FEFC3
:101570007FE004C048EF5FEF60E070E084179507FC
:10158000A607B70728F0C80135D981114FCF24CF5E
:10159000F80186839783A087B18748CFE114F104CF
:1015A00021F5D8011A964D915D916D917C911D9711
:1015B00053968D919D910D90BC91A02D4817590780
:1015C0006A077B0790F0C2D2882309F405CF4092C6
:1015D0000002509201026092020270920302809116
:1015E000810281608093810207C041E0C301B201A2
:1015F000E8D2882309F4F0CED501F701EE57FD4F6C
:10160000CF01880D991DE817F90719F02D91219345
:10161000FACFA80CB91C62CF53968D919D910D9075
:10162000BC91A02D84179507A607B70740F4F801D1
:10163000438B548B658B768B848180688483D8013F
:1016400014968C9183FD02C0C10107C0C8010E949D
:10165000C601882309F4C0CEF7CF26960FB6F894BA
:10166000DEBF0FBECDBFDF91CF911F910F91FF90D5
:10167000EF90DF90CF90BF90AF909F908F907F9032
:101680006F905F904F903F902F900895CF93DF938E
:101690001F92CDB7DEB7698341E050E0BE016F5FB6
:1016A0007F4F63DE0F90DF91CF910895CF93DF934B
:1016B000EC01898D9A8D009739F481E090E09B834D
:1016C0008A8380E090E00AC0FC01138212824DDE22
:1016D000E98DFA8D22813381232B79F7DF91CF9128
:1016E0000895CF92DF92EF92FF920F931F93CF93C3
:1016F000DF936C017A018B01C0E0D0E0CE15DF05ED
:1017000089F0D8016D918D01D601ED91FC91019088
:10171000F081E02DC6011995892B11F47E0102C0DC
:101720002196ECCFC701DF91CF911F910F91FF90D0
:10173000EF90DF90CF900895FC01918D828D9817E6
:1017400061F0828DDF01A80FB11D5D968C91928DA5
:101750009F5F9F73928F90E008958FEF9FEF0895A2
:10176000FC01918D828D981731F0828DE80FF11D6B
:10177000858D90E008958FEF9FEF0895FC01918D86
:10178000228D892F90E0805C9F4F821B91098F737F
:1017900099270895FC01848DDF01A80FB11DA35A7C
:1017A000BF4F2C91848D90E001968F739927848F81
:1017B000A689B7892C93A089B1898C9180648C9378
:1017C000938D848D981306C00288F389E02D808163
:1017D0008F7D80830895EF92FF920F931F93CF9395
:1017E000DF93EC0181E0888F9B8D8C8D981305C071
:1017F000E889F989808185FD23C0F62E0B8D10E0E4
:101800000F5F1F4F0F731127E02E8C8DE8120BC056
:101810000FB607FCFACFE889F989808185FFF5CFFB
:10182000CE01B8DFF2CF8B8DFE01E80FF11DE35A38
:10183000FF4FF0820B8FEA89FB898081806207C0AD
:10184000EE89FF896083E889F989808180648083DB
:1018500081E090E0DF91CF911F910F91FF90EF9089
:101860000895CF93DF93EC01888D8823C1F0EA8936
:10187000FB89808185FD05C0A889B9898C9186FD89
:101880000EC00FB607FCF5CF808185FFF2CFA88987
:10189000B9898C9185FFEDCFCE017CDFE8CFDF9158
:1018A000CF91089586D50F931F93CF93DF938C012B
:1018B0006115710559F0FB0101900020E9F731979E
:1018C000AF01461B570BF2DEEC0102C0C0E0D0E0D6
:1018D00042E050E06BE772E0C801E8DE8C0F9D1F2C
:1018E000DF91CF911F910F9108951F920F920FB624
:1018F0000F9211240BB60F922F933F934F935F9348
:101900006F937F938F939F93AF93BF93EF93FF93C7
:101910008AED94E03FDFFF91EF91BF91AF919F91EE
:101920008F917F916F915F914F913F912F910F9088
:101930000BBE0F900FBE0F901F9018951F920F9225
:101940000FB60F9211240BB60F922F938F939F9384
:10195000EF93FF93E091EA04F091EB048081E09132
:10196000F004F091F10482FD12C090818091F304A3
:101970008F5F8F732091F404821751F0E091F3048C
:10198000F0E0E652FB4F958F8093F30401C0808115
:10199000FF91EF919F918F912F910F900BBE0F9020
:1019A0000FBE0F901F901895362F90E0FC01E25467
:1019B000FE4F4491FC01E858FE4F2491FC01EE5C7F
:1019C000FE4F9491992309F46AC0442309F454C04A
:1019D00050E0FA013197E231F10508F04DC0882757
:1019E000EE58FF4F8F4FB0C3809180008F7707C0B4
:1019F000809180008F7D03C080918000877F8093DD
:101A000080003AC084B58F7702C084B58F7D84BDD5
:101A100033C08091B0008F7703C08091B0008F7D7C
:101A20008093B00029C0809190008F7707C080918B
:101A300090008F7D03C080919000877F80939000FD
:101A40001BC08091A0008F7707C08091A0008F7D80
:101A500003C08091A000877F8093A0000DC080917B
:101A600020018F7707C0809120018F7D03C0809176
:101A70002001877F80932001E92FF0E0EE0FFF1F08
:101A8000E85EFE4FA591B4918FB7F894EC913111B7
:101A900003C020952E2301C02E2B2C938FBF0895B9
:101AA0002FB7F8946091D6047091D7048091D80430
:101AB0009091D9042FBF08951F920F920FB60F92E5
:101AC00011242F933F938F939F93AF93BF93809154
:101AD000D6049091D704A091D804B091D904309144
:101AE000D50423E0230F2D3720F40196A11DB11D4D
:101AF00005C026E8230F0296A11DB11D2093D50431
:101B00008093D6049093D704A093D804B093D904BB
:101B10008091D1049091D204A091D304B091D404C7
:101B20000196A11DB11D8093D1049093D204A0937E
:101B3000D304B093D404BF91AF919F918F913F9103
:101B40002F910F900FBE0F901F901895CF93DF939A
:101B500080918102882389F1C0917F02D091800217
:101B600040910002509101026091020270910302C3
:101B700022E832E0CE0194DB811102C080E01EC079
:101B80004091CD045091CE046091CF047091D00467
:101B9000411551056105710571F022E832E0CE0171
:101BA0007FDB882359F31092CD041092CE0410925B
:101BB000CF041092D0041092810281E0DF91CF9186
:101BC00008958F929F92AF92BF92EF92FF920F93E0
:101BD0001F93CF934B015C01C42F80910002909121
:101BE0000102A0910202B091030288159905AA058D
:101BF000BB05F9F0ABDF811102C080E020C082E8B4
:101C0000E82E82E0F82E00E012E020E030E0B5019E
:101C1000A40180917F02909180020E94E0058823B8
:101C200061F38092000290920102A0920202B092AF
:101C3000030280918102C82BC093810281E0CF9181
:101C40001F910F91FF90EF90BF90AF909F908F905A
:101C500008954F925F926F927F928F929F92AF9270
:101C6000BF92CF92DF92EF92FF920F931F93CF9389
:101C7000DF93EC016A017B012801390142305105F3
:101C80006105710510F480E072C089859A85AB8585
:101C9000BC850196A11DB11D84179507A607B7073E
:101CA00090F38B889C88AD88BE888F89803129F419
:101CB000BB27AF2D9E2D8D2D09C0DB01CA0147E04A
:101CC000B695A795979587954A95D1F7880E991E51
:101CD000AA1EBB1E8091000290910102A0910202F7
:101CE000B091030288169906AA06BB0679F48F897B
:101CF000803199F4DD24EE24FF24C601880F991F5A
:101D0000FC01EE57FD4F5182408218C040E0C501F2
:101D1000B40157DF8111EBCFB6CFE894C7F8DD24CB
:101D2000EE24FF24C601880F991F880F991FFC011C
:101D3000EE57FD4F40825182628273828091810210
:101D40008160809381028A89823080F08D819E81BA
:101D5000AF81B885880E991EAA1EBB1E8092CD0445
:101D60009092CE04A092CF04B092D00481E0DF9193
:101D7000CF911F910F91FF90EF90DF90CF90BF9088
:101D8000AF909F908F907F906F905F904F9008954D
:101D90008F929F92AF92BF92CF92DF92EF92FF927B
:101DA0000F931F93CF93DF93FC0181859285A385C9
:101DB000B4850196A11DB11D84179507A607B70725
:101DC00010F480E05BC083899489A589B689C789AE
:101DD000C03129F4852E962EA72EBB2409C04A01B6
:101DE0005B01C7E0B694A79497948794CA95D1F7FE
:101DF000E9016A017B018F01BC01CD01680D791DEC
:101E00008A1D9B1D8090000290900102A09002020A
:101E1000B0900302681579058A059B0599F4F801CD
:101E200087898031A1F4B701A60155276627772756
:101E3000440F551FFA01EE57FD4F80819181A0E0BC
:101E4000B0E017C040E0BDDE8111E9CFBACFB701E5
:101E5000A6014F77552766277727440F551F440F54
:101E6000551FFA01EE57FD4F80819181A281B38108
:101E7000BF7088839983AA83BB8381E0DF91CF9170
:101E80001F910F91FF90EF90DF90CF90BF90AF9098
:101E90009F908F900895CF93DF93CDB7DEB7CD5845
:101EA000D1090FB6F894DEBF0FBECDBF6C961FAE42
:101EB0001EAE6C9788EE93E0A0E0B0E0A0968CAFE9
:101EC0009DAFAEAFBFAFA0978EE092E06A969FAF96
:101ED0008EAF6A97E3961FAE1EAEE397A5961FAE30
:101EE000A5976EEA74E0CE0101960E943E01BE0104
:101EF0006F5F7F4FCE01CB960E943E0119A218A2C0
:101F00008EE392E09F8F8E8F1BA221968FAD21973B
:101F100081111AC0E7961FAE1EAEE79788EE93E0D8
:101F2000A0E0B0E0EB968CAF9DAFAEAFBFAFEB974C
:101F3000C457DF4F19821882CC58D040C158DF4FA8
:101F40001882CF57D04035C0825023E14AE452E096
:101F5000823048F46EEA74E0CE014E960E946E071D
:101F600081110EC0D7CFBE01655C7F4FCE014E966A
:101F70000E946E07882371F2CE01CB960E94040264
:101F800049A95AA96BA97CA9CE014E960E941602B6
:101F9000BE01625E7F4FCE0101960E943E014AE47F
:101FA00052E0BE016F5F7F4FCE018D589F4F0E9460
:101FB000AB05E7968EAD9FADE7976C969FAF8EAF62
:101FC0006C97EB968CAD9DADAEADBFADEB97A0968B
:101FD0008CAF9DAFAEAFBFAFA097EF968CAD9DAD70
:101FE000AEADBFADEF97A4968CAF9DAFAEAFBFAF18
:101FF000A4978DE0E3E7F0E0EC0FFD1F3C96A8E529
:10200000B0E0AC0FBD1F1C9601900D928A95E1F7D0
:10201000C457DF4F88819981CC58D040E3969FAF59
:102020008EAFE39763E572E0CE01885A9F4F3BDCA9
:102030006AE672E0CE01885A9F4F35DCE3968EAD9A
:102040009FADE397009759F00E940402E3968EAD8E
:102050009FADE39716D1E3961FAE1EAEE3978FE0D8
:1020600081B912B886E084B980E58CBD87E087B974
:1020700088B98DB79EB7845F91400FB6F8949EBF24
:102080000FBE8DBF2DB73EB72F5F3F4F4DB75EB729
:102090004B505E4F88B1867088B9F90180818EBD42
:1020A0000DB407FEFDCF8EB58193E417F507B1F7A8
:1020B00088B1876088B9EECFEAEDF4E0138212822E
:1020C00088EE93E0A0E0B0E084839583A683B78395
:1020D0008EE192E09183808385EC90E09587848700
:1020E00084EC90E09787868780EC90E0918B808BE2
:1020F00081EC90E0938B828B82EC90E0958B848BCB
:1021000086EC90E0978B868B118E128E138E148E38
:10211000E2E8F4E080E580831182E4E8F4E01582EF
:1021200016821186138682E090E0A0E0B0E08487FA
:102130009587A687B78713A215A614A68EE392E00B
:1021400093A782A717A60895EE0FFF1F881F8BBFC6
:102150000790F691E02D1994CF93DF93823091058B
:1021600010F482E090E0E0917905F0917A0520E0AA
:1021700030E0C0E0D0E0309711F140815181481744
:102180005907C0F04817590761F48281938120975D
:1021900019F09B838A832BC090937A0580937905ED
:1021A00026C02115310519F04217530718F49A017A
:1021B000BE01DF01EF010280F381E02DDCCF2115AC
:1021C000310509F1281B390B2430310590F41296A2
:1021D0008D919C9113976115710521F0FB019383FB
:1021E000828304C090937A0580937905FD0132962D
:1021F00044C0FD01E20FF31F8193919322503109F6
:102200002D933C933AC02091770530917805232B8C
:1022100041F4209106023091070230937805209313
:10222000770520910402309105022115310541F412
:102230002DB73EB74091080250910902241B350B7F
:10224000E0917705F0917805E217F307A0F42E1BD3
:102250003F0B2817390778F0AC014E5F5F4F24170A
:10226000350748F04E0F5F1F509378054093770570
:102270008193919302C0E0E0F0E0CF01DF91CF9134
:1022800008950F931F93CF93DF93009709F48CC0A9
:10229000FC013297138212820091790510917A0520
:1022A0000115110581F420813181820F931F209146
:1022B0007705309178052817390779F5F093780577
:1022C000E093770571C0D80140E050E0AE17BF073A
:1022D00050F412962D913C911397AD0121153105C3
:1022E00009F1D901F3CF9D01DA01338322836081A3
:1022F0007181860F971F8217930769F4EC0128817B
:102300003981260F371F2E5F3F4F318320838A810B
:102310009B8193838283452B29F4F0937A05E09384
:10232000790542C01396FC93EE931297ED01499103
:1023300059919E01240F351FE217F30771F4808134
:102340009181840F951F029611969C938E938281A2
:10235000938113969C938E931297E0E0F0E0D8015E
:1023600012968D919C911397009719F0F8018C01AA
:10237000F6CF8D919C9198012E5F3F4F820F931F56
:1023800020917705309178052817390769F430973F
:1023900029F410927A051092790502C013821282F4
:1023A0001093780500937705DF91CF911F910F91DE
:1023B000089581E090E0F8941CC0FB01DC0104C0AA
:1023C0008D910190801921F441505040C8F7881B2D
:1023D000990B0895FB01DC014150504048F00190F9
:1023E0000D920020C9F701C01D9241505040E0F706
:0623F0000895F894FFCFF0
:1023F600FFFFFFFF00007B05800000000000B0012A
:10240600560B8F011F0928090F0200000000EB0B75
:10241600710BBE0B9C0BB00B310C00000000520C74
:10242600710B520C520C520C520C00000000460B61
:10243600710B00000000520C710B746573742E74DE
:1024460078740057726974696E6720746F207465BA
:1024560073742E7478742E2E2E0074657374696EE0
:0E2466006720312C20322C20332E000D0A006E
:00000001FF
