:1000000002C1000031C100002FC100002DC100005D
:100010002BC1000029C1000027C1000025C100003C
:1000200023C1000021C100001FC100001DC100004C
:100030001BC1000019C1000017C1000015C100005C
:1000400013C1000011C100000FC100000DC100006C
:100050000BC1000009C1000007C100000C945C0D39
:1000600003C100000C949E0C0C94750CFDC00000A4
:10007000FBC00000F9C00000F7C00000F5C00000A0
:10008000F3C00000F1C00000EFC00000EDC00000B0
:10009000EBC00000E9C00000E7C00000E5C00000C0
:1000A000E3C00000E1C00000DFC00000DDC00000D0
:1000B000DBC00000D9C00000D7C00000D5C00000E0
:1000C000D3C00000D1C00000CFC00000CDC00000F0
:1000D000CBC00000C9C00000C7C00000C5C0000000
:1000E000C3C00000020D050DF40CF80CFC0C3C0D17
:1000F000090D0D0D130D170D1B0D210D250D290DCE
:100100003C0D2F0D330D370D7C3C3E5E2B3D3F2FBC
:100110005B5D3B2C2A225C000000220025002800A9
:100120002B002E00310034000201000005010801FF
:100130000B0105050505070508080808020202026B
:100140000A0A080804040404010101010101010173
:100150000303030303030303040707070C0C0C0C3E
:100160000C0C0C0C02020202060606060606060627
:100170000B0B0B0B0B0B0B0B0102102020080810B4
:100180002040102040800201020108040201010207
:1001900004081020408080402010080402018004E0
:1001A000020180402010080402010804020101023B
:1001B0000408102040800102040810204080000044
:1001C0000A0B02090C0D0E080703040100000000D1
:1001D000000000000000000000000000000000001F
:1001E00000000000000000000000121110000000DC
:1001F00000000000000000000000000000000000FF
:10020000000000005C1011241FBECFEFD1E2DEBF62
:10021000CDBF00E00CBF12E0A0E0B2E0E6EFF3E2F9
:1002200000E00BBF02C007900D92AE37B107D9F7BF
:1002300025E0AEE7B2E001C01D92AB37B207E1F7AF
:1002400011E0C3E0D1E000E006C021970109802F52
:10025000FE010E94A410C230D10780E00807A9F770
:100260000E944B0F0C94F911CBCE8EBD00000DB443
:1002700007FEFDCF8EB508958FEFF7CFFC01DB01B0
:1002800012968D919C911397938382838EE392E0D3
:100290009183808314968C911497848315968C9106
:1002A0001597858316964D915D916D917C91199767
:1002B00046835783608771871A964D915D916D9142
:1002C0007C911D9742875387648775871E964D9151
:1002D0005D916D917C91519746875787608B718BAB
:1002E00052968C915297828B53964D915D916D9160
:1002F0007C915697438B548B658B768B57964D919B
:100300005D916D917C915A97478B508F618F728F61
:100310005B968D919C915C97948F838F0895DC01FF
:100320005996ED91FC915A973097B9F08389948949
:10033000A589B6894285538564857585841B950B8F
:10034000A60BB70B811520E89207A105B10538F07F
:100350008FEF9FE7A0E0B0E0089580E090E008957F
:10036000CF93DF931F92CDB7DEB76983DC01ED91A8
:10037000FC910280F381E02D41E050E0BE016F5F0F
:100380007F4F19950F90DF91CF910895CF93DF9311
:10039000EC018D818823A1F18C8187FF2DC06E85B2
:1003A0007F858889998941E00E94E10D882341F188
:1003B000EA8980E2E89FF0011124DF01AE57BD4FCA
:1003C0001097F1F08D81823050F44B895C896D89F2
:1003D0007E895C964D935D936D937C935F978F8937
:1003E000988DA98DBA8DEE57FD4F938F828FB58B67
:1003F000A48B8C818F778C83DF91CF910C94A60D89
:1004000080E0DF91CF910895CF93DF93EC01BEDFC1
:10041000882311F01D8281E0DF91CF910895FC01C6
:10042000818D928D009709F0B1CF08958F929F92A0
:10043000AF92BF92CF92DF92EF92FF920F931F93F2
:10044000CF93DF93EC018D81811102C080E077C0F2
:100450000B891C892D893E89041715072607370744
:10046000A8F36A017B01823029F4CA86DB86EC8618
:10047000FD860DC0C114D104E104F10451F41E82C3
:100480001F82188619861A861B861C861D8681E0A7
:1004900056C08A849B84AC84BD84EB8DFC8D2585FD
:1004A00030E0275F3F4FB501A40141505109610978
:1004B0007109022E04C076956795579547950A9461
:1004C000D2F7D701C6010197A109B10904C0B695B9
:1004D000A795979587952A95D2F784179507A6072C
:1004E000B70720F089288A288B2849F44F89588D2E
:1004F000698D7A8D4E835F836887798704C0841BFA
:10050000950BA60BB70B4C015D018E010A5F1F4FC7
:1005100081149104A104B10409F4A7CF4E815F8135
:100520006885798598018B8D9C8D0E94C80E91E01D
:10053000891A9108A108B1088111EACF87CFDF910C
:10054000CF911F910F91FF90EF90DF90CF90BF90D0
:10055000AF909F908F9008954F925F926F927F928D
:100560008F929F92AF92BF92CF92DF92EF92FF92C3
:100570000F931F93CF93DF93CDB7DEB728970FB6B6
:10058000F894DEBF0FBECDBF7C0180E2689F6001A2
:10059000112496012E573D4FD9011B969C919171C4
:1005A00021F0842F827409F0D1C0142FF701628BDF
:1005B0008091000290910102A0910202B091030289
:1005C00086879787A08BB18BF601EE57FD4F448944
:1005D000558960E070E0BA0155274427D701579646
:1005E0004D935D936D937C935A97828D938DA0E08C
:1005F000B0E0482B592B6A2B7B2BD70157964D9394
:100600005D936D937C935A97D9011B968C91887159
:1006100061F4848D958DA68DB78DF701838B948BB6
:10062000A58BB68B81E085834FC0803109F08EC0E9
:10063000D7015B96CD90DC905C974D835E836F8392
:100640007887812C912C5401412C82E0582E612C0A
:10065000712C4D815E816F8178859E012B5F3F4FAC
:10066000C6010E94C80E882309F470C0D301C201DC
:10067000F601058404C0880F991FAA1FBB1F0A94A6
:10068000D2F7880E991EAA1EBB1E4D815E816F8116
:1006900078858789803129F088EF9FEFAFEFBFE041
:1006A00004C088EF9FEFA0E0B0E0481759076A0741
:1006B0007B0778F2D70153968D929D92AD92BC92B2
:1006C000569784E015968C93812F8F70F701848361
:1006D0001682178210861186128613861486158656
:1006E00016FF36C08581813089F511FF2FC0F701D3
:1006F0004389548965897689452B462B472B09F414
:1007000062C040E050E0BA01C70190DE8823F1F0FA
:10071000D70157968D909D90AD90BC905A975B965F
:10072000CD90DC905C9782E090E0A0E0B0E0F60134
:1007300080839183A283B3839E012F5F3F4FB501D6
:10074000A401C6010E94C80E811104C080E03BC014
:1007500081E039C000E010E09801B501A401C601B4
:100760000E94290E882391F389809A80AB80BC80F7
:10077000D60157968C91803129F088EF9FEFAFEF2B
:10078000BFE004C088EF9FEFA0E0B0E088169906B4
:10079000AA06BB0688F2D70157961D921D921D929C
:1007A0001C925A97F701138A148A158A168A848133
:1007B00080688483C701EADD882341F240E050E08D
:1007C000BA01C70133DE28960FB6F894DEBF0FBE1C
:1007D000CDBFDF91CF911F910F91FF90EF90DF90F0
:1007E000CF90BF90AF909F908F907F906F905F90D1
:1007F0004F9008953F924F925F926F927F928F92A7
:100800009F92AF92BF92CF92DF92EF92FF920F939F
:100810001F93CF93DF93CDB7DEB72C970FB6F89425
:10082000DEBF0FBECDBF5C01DC015B968D909C905E
:100830005C971696CD90DD90ED90FC901997C114C1
:10084000D104E104F10439F0BFEFCB1ADB0AEB0A63
:10085000FB0A312C07C0F401C080D180E280F38014
:1008600033243394F40181859285A385B4859C015A
:10087000AD012F5F3F4F4F4F5F4F29873A874B871F
:100880005C87260137011D821E821F821886F401B3
:1008900081859285A385B4852D813E814F815885C0
:1008A000281739074A075B0708F063C089859A85CE
:1008B000AB85BC858C159D05AE05BF0550F482E067
:1008C000C82ED12CE12CF12C92E0492E512C612C18
:1008D000712C9E012F5F3F4FB701A601C4010E94FA
:1008E000C80E882309F445C089819A81AB81BC81F7
:1008F000892B8A2B8B2B41F0260137019FEF491A58
:10090000590A690A790A05C0C414D504E604F70433
:1009100091F02D813E814F8158852F5F3F4F4F4F82
:100920005F4F2D833E834F8358873FEFC31AD30A0F
:10093000E30AF30AACCF0FEF1FEF2FEF3FE0B30155
:10094000A201C4010E94290E882399F0D5011696B0
:100950004D915D916D917C911997411551056105FE
:10096000710549F093018201C4010E94290E811191
:1009700002C080E02AC0D50116964D925D926D921C
:100980007C921997332051F0D301C2010196A11D29
:10099000B11DF40180839183A283B383F50187891C
:1009A000908DA18DB28D892B8A2B8B2B69F4D5016B
:1009B00057964D925D926D927C925A9714968C91B7
:1009C0001497806814968C9381E02C960FB6F89457
:1009D000DEBF0FBECDBFDF91CF911F910F91FF9072
:1009E000EF90DF90CF90BF90AF909F908F907F90CF
:1009F0006F905F904F903F9008950F931F93CF9308
:100A0000DF93EB010E94500D8B0136DC8F3F49F0E4
:100A10000E94500D601B710B6C177D07B0F380E0D6
:100A200001C081E0DF91CF911F910F91089561E0A6
:100A3000FC018481B9D780917E02811110927E02DF
:100A40000895CF93DF93EC018E81882379F08F8115
:100A500098859C012F5F3F4F38872F8382309240CB
:100A600010F40ADCF4CFCE01E2DF1E82DF91CF91D9
:100A70000895CF92DF92FF920F931F93CF93DF934E
:100A800000D01F92CDB7DEB76C01F62E29833A83D2
:100A90004B835C83D6DF80917E0229813A814B8132
:100AA0005C81811109C081E080937E029091820473
:100AB000809183049CBD8DBD60E0F6018481298313
:100AC0003A834B835C8370D76CE271E0C60195DF9B
:100AD0008F2D8064CADB08E110E05C814B813A8194
:100AE0002981DA01C901002E04C0B695A795979512
:100AF00087950A94D2F729833A834B835C83B5DBCD
:100B00000850110929813A814B815C81083FFFEF30
:100B10001F0739F7FF2029F088E0F81204C087E8A2
:100B200003C085E901C08FEFA0DB10E0A5DBF60173
:100B3000828787FF04C01F3F11F01F5FF7CF0F9020
:100B40000F900F900F90DF91CF911F910F91FF9019
:100B5000DF90CF900895EF92FF920F931F93CF9362
:100B6000DF93EC017B018A011B821A8288EE93E0FD
:100B7000A0E0B0E08C839D83AE83BF838EE092E0E3
:100B8000998388838DE190E00E94AC109A8F898FC1
:100B9000009779F02DE1F701DC0101900D922A9583
:100BA000E1F74CE050E0B801CE010C960E94EA114A
:100BB000188EDF91CF911F910F91FF90EF900895C4
:100BC000AF92BF92CF92DF92EF92FF920F931F935B
:100BD000CF93DF93EC016901C801820F931F81302D
:100BE000924008F068C08E81882371F088819981D5
:100BF000AA81BB81481759076A077B0729F48F81AF
:100C00009885C816D90688F5488359836A837B83FB
:100C10008B85833039F089E0440F551F661F771F9D
:100C20008A95D1F79A01AB0161E1CE0122DF8823D9
:100C300019F083E08D833FC033D75B011DDB8A87CA
:100C40008F3F41F42DD76A197B096D327140B0F3A3
:100C50008FE003C08E3F29F08DE08D83CE01E7DE6B
:100C60002AC018861F8281E08E838F8198858C151B
:100C70009D0538F401DB8F819885019698878F83D5
:100C8000F4CF6701E00EF11ECE14DF0429F0F4DA90
:100C9000F60181936F01F8CF8F819885080F191F96
:100CA00018870F838985882319F00115124038F0C1
:100CB000CE01C7DE04C0CE01BADE80E001C081E013
:100CC000DF91CF911F910F91FF90EF90DF90CF9028
:100CD000BF90AF9008953F924F925F926F927F9234
:100CE0008F929F92AF92BF92CF92DF92EF92FF923C
:100CF0000F931F93CF93DF931F92CDB7DEB7FC0105
:100D00008581882309F4D5C0848180FFD2C0332433
:100D10003394438954896589768982859385A4852E
:100D2000B585481759076A077B0709F4312C6F010D
:100D3000832D90E09E012F5F3F4F49013F0136E038
:100D4000630E711C40907F0250908002892B09F441
:100D50007BC0D6011A964D915D916D917C911D9746
:100D60005A01B1E0BB22F60125817A018B0189E0AD
:100D700016950795F794E7948A95D1F7838D948D0E
:100D8000223061F4FC01828D938DA48DB58DBC0160
:100D9000CD016E0D7F1D801F911F43C0DC01149695
:100DA0002C912150122F1E21A114B104C9F411114C
:100DB00017C0452B462B472B51F4F6018789908DA0
:100DC000A18DB28D86839783A087B18709C04681A4
:100DD0005781608571859301DBD7882309F469C049
:100DE000F601238D348D86819781A085B185029788
:100DF000A109B109F901058404C0880F991FAA1F30
:100E0000BB1F0A94D2F74685578560897189840F84
:100E1000951FA61FB71FBC01CD01610F711D811D5C
:100E2000911DD60114962C9126FF13C0009100024B
:100E300010910102209102023091030260177107A4
:100E40008207930741F505C0332099F1898190E02D
:100E500032C040E0B6D6882361F1F501EE57FD4F70
:100E6000D401CF010196E817F90719F021912D93CC
:100E7000FACFEFEF8E1A9E0AF60182859385A4853C
:100E8000B5850196A11DB11D82879387A487B5877B
:100E900080E090E05BCF740101E010E09501AB01D0
:100EA000BC01C2018DDE882321F0BFEF8B1A9B0AA3
:100EB000E3CF8FEF9FEF0F90DF91CF911F910F91B5
:100EC000FF90EF90DF90CF90BF90AF909F908F906A
:100ED0007F906F905F904F903F9008954F925F92F8
:100EE0006F927F92AF92BF92CF92DF92EF92FF927A
:100EF0000F931F93CF93DF93CDB7DEB72B970FB62A
:100F0000F894DEBF0FBECDBF7C01CE0101966C010F
:100F1000FC0190E28BE08C0D91938E13FDCFDA01F2
:100F200030E047E09D91992339F19E3219F0E8E0D5
:100F3000F1E00AC04A3009F46CC138E04AE0F2CF6F
:100F40003196891709F465C184918111F9CF43174E
:100F500008F45FC18FED890F8E3508F05AC181E02A
:100F6000830FF601E30FF11D3FE9390F3A3108F421
:100F700090529083382FD6CF8981803209F449C1AD
:100F8000B22E8B01DB015B968D919C915C97F701F2
:100F9000948F838F16961D921D921D921C92199705
:100FA000FB011286138614861586712CF801828542
:100FB0009385A485B5854389548965897689841785
:100FC0009507A607B70708F060C025E0B695A79576
:100FD000979587952A95D1F7F82FFF706F2ED80136
:100FE00015968C91823008F414C1C80174DE97FD07
:100FF00010C1F80182859385A485B5854F96A11D02
:10100000B11D82879387A487B587F0E26F9EC001E8
:101010001124BC016E577D4F6115710509F4F9C0AB
:10102000DB012C91222319F0253EC1F427C0711059
:101030000EC0F701628A4091000250910102609156
:1010400002027091030246875787608B718BFC0107
:10105000EE57FD4F8081811113C015C04BE050E069
:10106000C6010E94DD11892B09F0A0CF8B2D807362
:10107000803309F4CEC04B2D662DC8C07720C9F24D
:101080007724739493CF772473948B2D827182315C
:1010900009F0BFC07720C9F0D7011E966D917D91F0
:1010A0008D919C91519741E08CD5882309F4B1C072
:1010B000F7016289F0E26F9FB00111246E577D4FF6
:1010C0006115710509F077C0A4C0D80115968C91FF
:1010D000823009F49EC0C8018DDB882309F499C0D1
:1010E000D8015B96ED91FC915C9716964D905D90C2
:1010F0006D907C901997B2E04B1A51086108710805
:10110000058404C0440C551C661C771C0A94D2F755
:1011100086859785A089B189480E591E6A1E7B1E57
:10112000A480E1E04E1A510861087108AA2001F17B
:101130000DD5882309F46DC0E2E8F2E0119224E0B5
:10114000E238F207D9F7D301C2018A0D911DA11D22
:10115000B11D8093000290930102A0930202B0930C
:10116000030280918102816080938102AA94DECF84
:10117000D8015B96ED91FC915C9780E092E0A0E055
:10118000B0E0058404C0880F991FAA1FBB1F0A94F2
:10119000D2F7F8014389548965897689840F951FB0
:1011A000A61FB71F838B948BA58BB68BD701529646
:1011B0001C9262E872E080E2FB0111928A95E9F7E5
:1011C0008BE0F601DB0101900D928A95E1F781E257
:1011D00098E2DB0151969C938E93509720E038E083
:1011E0001F963C932E931E9753969C938E935297E3
:1011F00059969C938E93589757963C932E93569757
:10120000A5D4882331F04B2DF7016289C701A4D9F9
:1012100001C080E02B960FB6F894DEBF0FBECDBFA5
:10122000DF91CF911F910F91FF90EF90DF90CF90C2
:10123000BF90AF907F906F905F904F900895FC01AA
:10124000818D928D009709F046CD8FEF9FEF089525
:101250000F931F93CF93DF93FC01818D928D0097A5
:10126000A9F0EF0138DD8C010F3F8FEF180789F0EF
:10127000898D9A8DFC014285538564857585415021
:10128000510961097109D2D8C80105C080E090E018
:1012900002C08FEF9FEFDF91CF911F910F910895C3
:1012A000EF92FF920F931F93CF93DF93EC0179019D
:1012B000411551056105710511F482E139C08B8535
:1012C000833039F089E0440F551F661F771F8A95D8
:1012D000D1F79A01AB0168E1CE01CBDB882311F095
:1012E00084E026C08EEF0E94350187018EEFF81A48
:1012F000F80181918F010E9435010E151F05C1F77C
:101300008FEF0E9435018FEF0E9435010E943C0152
:101310008A878F71853029F081E18D83CE0187DB4B
:1013200008C068E572E0CE0168DB811106C085E186
:101330008D83CE017CDB80E011C020E030E0A9018C
:101340006DE0CE0196DB811104C00E943C01882330
:1013500011F084E1EDCFCE016ADB81E0DF91CF9126
:101360001F910F91FF90EF9008952F923F924F920F
:101370005F926F927F928F929F92AF92BF92CF9225
:10138000DF92EF92FF920F931F93CF93DF9300D0E2
:1013900000D0CDB7DEB78C015B011A01DC011596D8
:1013A0008C9115978130C1F414968C9181FF14C0F3
:1013B00082FF1AC0F801438954896589768982853C
:1013C0009385A485B58584179507A607B70761F0AF
:1013D000C8012CD8811108C081E090E0F801938306
:1013E000828380E090E039C1610120917F023091D9
:1013F00080023E832D8381C0D8015B968D919C91A4
:101400005C97FC0174802FEF270D2A013B0139E026
:1014100076946794579447943A95D1F7722E742036
:101420007A01F1E0FF22772009F473C080E092E0B6
:101430008E199F0946018C159D0508F44C01D801B1
:101440005B962D913C915C9716968D919D910D9098
:10145000BC91A02D0297A109B109F901058404C02E
:10146000880F991FAA1FBB1F0A94D2F7468557857C
:1014700060897189840F951FA61FB71F9C01AD015C
:10148000270D311D411D511D29013A01811432E002
:10149000930609F083C08091000290910102A0910F
:1014A0000202B091030284159505A605B70559F40B
:1014B0008FEF9FEFDC018093000290930102A093D5
:1014C0000202B09303029501B301A2018D819E81B6
:1014D000E7DE882309F480CF9EEFB91AC818D9082F
:1014E000F80182859385A485B585880D991DA11D78
:1014F000B11D82879387A487B587D8011A964D912D
:101500005D916D917C911D97C114D10409F074CF48
:1015100083C0E114F10409F089CF16964D915D91D5
:101520006D917C911997411551056105710559F42B
:1015300057968D919D910D90BC91A02D0097A1057E
:10154000B10531F520C09E012F5F3F4F21D4882384
:1015500009F448CF89819A81AB81BC81F801238D40
:10156000348DF9012789203129F048EF5FEF6FEFC3
:101570007FE004C048EF5FEF60E070E084179507FC
:10158000A607B70728F0C80135D981114FCF24CF5E
:10159000F80186839783A087B18748CFE114F104CF
:1015A00021F5D8011A964D915D916D917C911D9711
:1015B00053968D919D910D90BC91A02D4817590780
:1015C0006A077B0790F0C2D2882309F405CF4092C6
:1015D0000002509201026092020270920302809116
:1015E000810281608093810207C041E0C301B201A2
:1015F000E8D2882309F4F0CED501F701EE57FD4F6C
:10160000CF01880D991DE817F90719F02D91219345
:10161000FACFA80CB91C62CF53968D919D910D9075
:10162000BC91A02D84179507A607B70740F4F801D1
:10163000438B548B658B768B848180688483D8013F
:1016400014968C9183FD02C0C10107C0C8010E949D
:10165000C601882309F4C0CEF7CF26960FB6F894BA
:10166000DEBF0FBECDBFDF91CF911F910F91FF90D5
:10167000EF90DF90CF90BF90AF909F908F907F9032
:101680006F905F904F903F902F900895CF93DF938E
:101690001F92CDB7DEB7698341E050E0BE016F5FB6
:1016A0007F4F63DE0F90DF91CF910895CF93DF934B
:1016B000EC01898D9A8D009739F481E090E09B834D
:1016C0008A8380E090E00AC0FC01138212824DDE22
:1016D000E98DFA8D22813381232B79F7DF91CF9128
:1016E0000895CF92DF92EF92FF920F931F93CF93C3
:1016F000DF936C017A018B01C0E0D0E0CE15DF05ED
:1017000089F0D8016D918D01D601ED91FC91019088
:10171000F081E02DC6011995892B11F47E0102C0DC
:101720002196ECCFC701DF91CF911F910F91FF90D0
:10173000EF90DF90CF900895FC01918D828D9817E6
:1017400061F0828DDF01A80FB11D5D968C91928DA5
:101750009F5F9F73928F90E008958FEF9FEF0895A2
:10176000FC01918D828D981731F0828DE80FF11D6B
:10177000858D90E008958FEF9FEF0895FC01918D86
:10178000228D892F90E0805C9F4F821B91098F737F
:1017900099270895FC01848DDF01A80FB11DA35A7C
:1017A000BF4F2C91848D90E001968F739927848F81
:1017B000A689B7892C93A089B1898C9180648C9378
:1017C000938D848D981306C00288F389E02D808163
:1017D0008F7D80830895EF92FF920F931F93CF9395
:1017E000DF93EC0181E0888F9B8D8C8D981305C071
:1017F000E889F989808185FD23C0F62E0B8D10E0E4
:101800000F5F1F4F0F731127E02E8C8DE8120BC056
:101810000FB607FCFACFE889F989808185FFF5CFFB
:10182000CE01B8DFF2CF8B8DFE01E80FF11DE35A38
:10183000FF4FF0820B8FEA89FB898081806207C0AD
:10184000EE89FF896083E889F989808180648083DB
:1018500081E090E0DF91CF911F910F91FF90EF9089
:101860000895CF93DF93EC01888D8823C1F0EA8936
:10187000FB89808185FD05C0A889B9898C9186FD89
:101880000EC00FB607FCF5CF808185FFF2CFA88987
:10189000B9898C9185FFEDCFCE017CDFE8CFDF9158
:1018A000CF91089586D50F931F93CF93DF938C012B
:1018B0006115710559F0FB0101900020E9F731979E
:1018C000AF01461B570BF2DEEC0102C0C0E0D0E0D6
:1018D00042E050E06BE772E0C801E8DE8C0F9D1F2C
:1018E000DF91CF911F910F9108951F920F920FB624
:1018F0000F9211240BB60F922F933F934F935F9348
:101900006F937F938F939F93AF93BF93EF93FF93C7
:101910008AED94E03FDFFF91EF91BF91AF919F91EE
:101920008F917F916F915F914F913F912F910F9088
:101930000BBE0F900FBE0F901F9018951F920F9225
:101940000FB60F9211240BB60F922F938F939F9384
:10195000EF93FF93E091EA04F091EB048081E09132
:10196000F004F091F10482FD12C090818091F304A3
:101970008F5F8F732091F404821751F0E091F3048C
:10198000F0E0E652FB4F958F8093F30401C0808115
:10199000FF91EF919F918F912F910F900BBE0F9020
:1019A0000FBE0F901F901895362F90E0FC01E25467
:1019B000FE4F4491FC01E858FE4F2491FC01EE5C7F
:1019C000FE4F9491992309F46AC0442309F454C04A
:1019D00050E0FA013197E231F10508F04DC0882757
:1019E000EE58FF4F8F4FB0C3809180008F7707C0B4
:1019F000809180008F7D03C080918000877F8093DD
:101A000080003AC084B58F7702C084B58F7D84BDD5
:101A100033C08091B0008F7703C08091B0008F7D7C
:101A20008093B00029C0809190008F7707C080918B
:101A300090008F7D03C080919000877F80939000FD
:101A40001BC08091A0008F7707C08091A0008F7D80
:101A500003C08091A000877F8093A0000DC080917B
:101A600020018F7707C0809120018F7D03C0809176
:101A70002001877F80932001E92FF0E0EE0FFF1F08
:101A8000E85EFE4FA591B4918FB7F894EC913111B7
:101A900003C020952E2301C02E2B2C938FBF0895B9
:101AA0002FB7F8946091D6047091D7048091D80430
:101AB0009091D9042FBF08951F920F920FB60F92E5
:101AC00011242F933F938F939F93AF93BF93809154
:101AD000D6049091D704A091D804B091D904309144
:101AE000D50423E0230F2D3720F40196A11DB11D4D
:101AF00005C026E8230F0296A11DB11D2093D50431
:101B00008093D6049093D704A093D804B093D904BB
:101B10008091D1049091D204A091D304B091D404C7
:101B20000196A11DB11D8093D1049093D204A0937E
:101B3000D304B093D404BF91AF919F918F913F9103
:101B40002F910F900FBE0F901F901895CF93DF939A
:101B500080918102882389F1C0917F02D091800217
:101B600040910002509101026091020270910302C3
:101B700022E832E0CE0194DB811102C080E01EC079
:101B80004091CD045091CE046091CF047091D00467
:101B9000411551056105710571F022E832E0CE0171
:101BA0007FDB882359F31092CD041092CE0410925B
:101BB000CF041092D0041092810281E0DF91CF9186
:101BC00008958F929F92AF92BF92EF92FF920F93E0
:101BD0001F93CF934B015C01C42F80910002909121
:101BE0000102A0910202B091030288159905AA058D
:101BF000BB05F9F0ABDF811102C080E020C082E8B4
:101C0000E82E82E0F82E00E012E020E030E0B5019E
:101C1000A40180917F02909180020E94E0058823B8
:101C200061F38092000290920102A0920202B092AF
:101C3000030280918102C82BC093810281E0CF9181
:101C40001F910F91FF90EF90BF90AF909F908F905A
:101C500008954F925F926F927F928F929F92AF9270
:101C6000BF92CF92DF92EF92FF920F931F93CF9389
:101C7000DF93EC016A017B012801390142305105F3
:101C80006105710510F480E072C089859A85AB8585
:101C9000BC850196A11DB11D84179507A607B7073E
:101CA00090F38B889C88AD88BE888F89803129F419
:101CB000BB27AF2D9E2D8D2D09C0DB01CA0147E04A
:101CC000B695A795979587954A95D1F7880E991E51
:101CD000AA1EBB1E8091000290910102A0910202F7
:101CE000B091030288169906AA06BB0679F48F897B
:101CF000803199F4DD24EE24FF24C601880F991F5A
:101D0000FC01EE57FD4F5182408218C040E0C501F2
:101D1000B40157DF8111EBCFB6CFE894C7F8DD24CB
:101D2000EE24FF24C601880F991F880F991FFC011C
:101D3000EE57FD4F40825182628273828091810210
:101D40008160809381028A89823080F08D819E81BA
:101D5000AF81B885880E991EAA1EBB1E8092CD0445
:101D60009092CE04A092CF04B092D00481E0DF9193
:101D7000CF911F910F91FF90EF90DF90CF90BF9088
:101D8000AF909F908F907F906F905F904F9008954D
:101D90008F929F92AF92BF92CF92DF92EF92FF927B
:101DA0000F931F93CF93DF93FC0181859285A385C9
:101DB000B4850196A11DB11D84179507A607B70725
:101DC00010F480E05BC083899489A589B689C789AE
:101DD000C03129F4852E962EA72EBB2409C04A01B6
:101DE0005B01C7E0B694A79497948794CA95D1F7FE
:101DF000E9016A017B018F01BC01CD01680D791DEC
:101E00008A1D9B1D8090000290900102A09002020A
:101E1000B0900302681579058A059B0599F4F801CD
:101E200087898031A1F4B701A60155276627772756
:101E3000440F551FFA01EE57FD4F80819181A0E0BC
:101E4000B0E017C040E0BDDE8111E9CFBACFB701E5
:101E5000A6014F77552766277727440F551F440F54
:101E6000551FFA01EE57FD4F80819181A281B38108
:101E7000BF7088839983AA83BB8381E0DF91CF9170
:101E80001F910F91FF90EF90DF90CF90BF90AF9098
:101E90009F908F900895CF93DF93CDB7DEB7CD5845
:101EA000D1090FB6F894DEBF0FBECDBF6C961FAE42
:101EB0001EAE6C9788EE93E0A0E0B0E0A0968CAFE9
:101EC0009DAFAEAFBFAFA0978EE092E06A969FAF96
:101ED0008EAF6A97E3961FAE1EAEE397A5961FAE30
:101EE000A5976EEA74E0CE0101960E943E01BE0104
:101EF0006F5F7F4FCE01CB960E943E0119A218A2C0
:101F00008EE392E09F8F8E8F1BA221968FAD21973B
:101F100081111AC0E7961FAE1EAEE79788EE93E0D8
:101F2000A0E0B0E0EB968CAF9DAFAEAFBFAFEB974C
:101F3000C457DF4F19821882CC58D040C158DF4FA8
:101F40001882CF57D04035C0825023E14AE452E096
:101F5000823048F46EEA74E0CE014E960E946E071D
:101F600081110EC0D7CFBE01655C7F4FCE014E966A
:101F70000E946E07882371F2CE01CB960E94040264
:101F800049A95AA96BA97CA9CE014E960E941602B6
:101F9000BE01625E7F4FCE0101960E943E014AE47F
:101FA00052E0BE016F5F7F4FCE018D589F4F0E9460
:101FB000AB05E7968EAD9FADE7976C969FAF8EAF62
:101FC0006C97EB968CAD9DADAEADBFADEB97A0968B
:101FD0008CAF9DAFAEAFBFAFA097EF968CAD9DAD70
:101FE000AEADBFADEF97A4968CAF9DAFAEAFBFAF18
:101FF000A4978DE0E3E7F0E0EC0FFD1F3C96A8E529
:10200000B0E0AC0FBD1F1C9601900D928A95E1F7D0
:10201000C457DF4F88819981CC58D040E3969FAF59
:102020008EAFE39763E572E0CE01885A9F4F3BDCA9
:102030006AE672E0CE01885A9F4F35DCE3968EAD9A
:102040009FADE397009759F00E940402E3968EAD8E
:102050009FADE39716D1E3961FAE1EAEE3978FE0D8
:1020600081B912B886E084B980E58CBD87E087B974
:1020700088B98DB79EB7845F91400FB6F8949EBF24
:102080000FBE8DBF2DB73EB72F5F3F4F4DB75EB729
:102090004B505E4F88B1867088B9F90180818EBD42
:1020A0000DB407FEFDCF8EB58193E417F507B1F7A8
:1020B00088B1876088B9EECFEAEDF4E0138212822E
:1020C00088EE93E0A0E0B0E084839583A683B78395
:1020D0008EE192E09183808385EC90E09587848700
:1020E00084EC90E09787868780EC90E0918B808BE2
:1020F00081EC90E0938B828B82EC90E0958B848BCB
:1021000086EC90E0978B868B118E128E138E148E38
:10211000E2E8F4E080E580831182E4E8F4E01582EF
:1021200016821186138682E090E0A0E0B0E08487FA
:102130009587A687B78713A215A614A68EE392E00B
:1021400093A782A717A60895EE0FFF1F881F8BBFC6
:102150000790F691E02D1994CF93DF93823091058B
:1021600010F482E090E0E0917905F0917A0520E0AA
:1021700030E0C0E0D0E0309711F140815181481744
:102180005907C0F04817590761F48281938120975D
:1021900019F09B838A832BC090937A0580937905ED
:1021A00026C02115310519F04217530718F49A017A
:1021B000BE01DF01EF010280F381E02DDCCF2115AC
:1021C000310509F1281B390B2430310590F41296A2
:1021D0008D919C9113976115710521F0FB019383FB
:1021E000828304C090937A0580937905FD0132962D
:1021F00044C0FD01E20FF31F8193919322503109F6
:102200002D933C933AC02091770530917805232B8C
:1022100041F4209106023091070230937805209313
:10222000770520910402309105022115310541F412
:102230002DB73EB74091080250910902241B350B7F
:10224000E0917705F0917805E217F307A0F42E1BD3
:102250003F0B2817390778F0AC014E5F5F4F24170A
:10226000350748F04E0F5F1F509378054093770570
:102270008193919302C0E0E0F0E0CF01DF91CF9134
:1022800008950F931F93CF93DF93009709F48CC0A9
:10229000FC013297138212820091790510917A0520
:1022A0000115110581F420813181820F931F209146
:1022B0007705309178052817390779F5F093780577
:1022C000E093770571C0D80140E050E0AE17BF073A
:1022D00050F412962D913C911397AD0121153105C3
:1022E00009F1D901F3CF9D01DA01338322836081A3
:1022F0007181860F971F8217930769F4EC0128817B
:102300003981260F371F2E5F3F4F318320838A810B
:102310009B8193838283452B29F4F0937A05E09384
:10232000790542C01396FC93EE931297ED01499103
:1023300059919E01240F351FE217F30771F4808134
:102340009181840F951F029611969C938E938281A2
:10235000938113969C938E931297E0E0F0E0D8015E
:1023600012968D919C911397009719F0F8018C01AA
:10237000F6CF8D919C9198012E5F3F4F820F931F56
:1023800020917705309178052817390769F430973F
:1023900029F410927A051092790502C013821282F4
:1023A0001093780500937705DF91CF911F910F91DE
:1023B000089581E090E0F8941CC0FB01DC0104C0AA
:1023C0008D910190801921F441505040C8F7881B2D
:1023D000990B0895FB01DC014150504048F00190F9
:1023E0000D920020C9F701C01D9241505040E0F706
:0623F0000895F894FFCFF0
:1023F600FFFFFFFF00007B05800000000000B0012A
:10240600560B8F011F0928090F0200000000EB0B75
:10241600710BBE0B9C0BB00B310C00000000520C74
:10242600710B520C520C520C520C00000000460B61
:10243600710B00000000520C710B746573742E74DE
:1024460078740057726974696E6720746F207465BA
:1024560073742E7478742E2E2E0074657374696EE0
:0E2466006720312C20322C20332E000D0A006E
:020000023000CC
:10E000000D9489F10D94B2F10D94B2F10D94B2F129
:10E010000D94B2F10D94B2F10D94B2F10D94B2F1F0
:10E020000D94B2F10D94B2F10D94B2F10D94B2F1E0
:10E030000D94B2F10D94B2F10D94B2F10D94B2F1D0
:10E040000D94B2F10D94B2F10D94B2F10D94B2F1C0
:10E050000D94B2F10D94B2F10D94B2F10D94B2F1B0
:10E060000D94B2F10D94B2F10D94B2F10D94B2F1A0
:10E070000D94B2F10D94B2F10D94B2F10D94B2F190
:10E080000D94B2F10D94B2F10D94B2F10D94B2F180
:10E090000D94B2F10D94B2F10D94B2F10D94B2F170
:10E0A0000D94B2F10D94B2F10D94B2F10D94B2F160
:10E0B0000D94B2F10D94B2F10D94B2F10D94B2F150
:10E0C0000D94B2F10D94B2F10D94B2F10D94B2F140
:10E0D0000D94B2F10D94B2F10D94B2F10D94B2F130
:10E0E0000D94B2F141546D656761323536300041AF
:10E0F000726475696E6F206578706C6F72657220DE
:10E1000073746B3530305632206279204D4C530099
:10E11000426F6F746C6F616465723E004875683F52
:10E1200000436F6D70696C6564206F6E203D200048
:10E130004350552054797065202020203D20005FF9
:10E140005F4156525F415243485F5F3D2000415658
:10E1500052204C696243205665723D20004743437C
:10E160002056657273696F6E203D20004350552024
:10E1700049442020202020203D20004C6F7720663D
:10E18000757365202020203D20004869676820665F
:10E190007573652020203D200045787420667573D6
:10E1A00065202020203D20004C6F636B2066757336
:10E1B000652020203D20004D617220203720323024
:10E1C000313300312E362E3800342E332E350056A2
:10E1D00023202020414444522020206F7020636F70
:10E1E00064652020202020696E73747275637469E1
:10E1F0006F6E2061646472202020496E74657272B3
:10E20000757074006E6F20766563746F7200726A49
:10E210006D702020006A6D70200057686174207056
:10E220006F72743A00506F7274206E6F7420737541
:10E2300070706F72746564004D7573742062652030
:10E2400061206C6574746572002000577269747483
:10E25000696E672045450052656164696E672045B7
:10E26000450045452065727220636E743D00504F35
:10E27000525400303D5A65726F2061646472003FF1
:10E280003D43505520737461747300403D454550C3
:10E29000524F4D207465737400423D426C696E6B41
:10E2A000204C454400453D44756D70204545505215
:10E2B0004F4D00463D44756D7020464C415348001B
:10E2C000483D48656C70004C3D4C69737420492F83
:10E2D0004F20506F72747300513D51756974005234
:10E2E0003D44756D702052414D00563D73686F7707
:10E2F00020696E7465727275707420566563746FF0
:10E30000727300593D506F727420626C696E6B00BD
:10E310002A0011241FBECFEFD1E2DEBFCDBF01E046
:10E320000CBF12E0A0E0B2E0EEE1FDEF03E00BBFB6
:10E3300002C007900D92A030B107D9F712E0A0E01B
:10E34000B2E001C01D92AE30B107E1F70F9460F367
:10E350000D948DFE01E20EBF0FEF0DBF11241FBE05
:10E360000D9460F30D9400F020E030E040ED57E0B4
:10E3700005C0FA013197F1F72F5F3F4F2817390792
:10E38000C0F308959C01260F311DC901A0E0B0E043
:10E390002F5F3F4FABBFFC018791882361F08093D3
:10E3A000C6008091C00086FFFCCF8091C0008064D1
:10E3B0008093C000EACF08958DE08093C6008091DD
:10E3C000C00086FFFCCF8091C00080648093C000B5
:10E3D0008AE08093C6008091C00086FFFCCF8091C8
:10E3E000C00080648093C00008950F94C2F10F9420
:10E3F000DCF10895FC019081992359F09093C600B7
:10E400008091C00086FFFCCF8091C0008064809323
:10E41000C0003196992379F70895282F982F929567
:10E420009F70892F805D8A3308F0895F8093C600D2
:10E430008091C00086FFFCCF8091C00080648093F3
:10E44000C000822F8F70982F905D9A3308F0995FEB
:10E450009093C6008091C00086FFFCCF8091C000E1
:10E4600080648093C00008959C01FB01853691056E
:10E470001CF46330710594F0C90164E670E00F94F8
:10E480002EFE605D7F4F6093C6008091C00086FFC6
:10E49000FCCF8091C00080648093C0002B30310598
:10E4A00014F43297B4F0C90164E670E00F942EFEC4
:10E4B0006AE070E00F942EFE605D7F4F6093C600AF
:10E4C0008091C00086FFFCCF8091C0008064809363
:10E4D000C000C9016AE070E00F942EFEC0968093E0
:10E4E000C6008091C00086FFFCCF8091C000806490
:10E4F0008093C00008951F93182F8EE692EE60E07F
:10E500000F94C2F11093C6008091C00086FFFCCF2B
:10E510008091C00080648093C0000F94DCF11F9153
:10E5200008952F923F924F925F926F927F928F92B7
:10E530009F92AF92BF92CF92DF92EF92FF920F9392
:10E540001F93DF93CF93CDB7DEB762970FB6F894E2
:10E55000DEBF0FBECDBF382E622ECA01DB015C01CB
:10E560006D01772420E2222E2E010894411C511CBB
:10E570008BC081E0A81680E0B80681E0C80680E084
:10E58000D80628F0C601AA27BB270F940DF2BB2797
:10E59000AD2D9C2D8B2D0F940DF28A2D0F940DF225
:10E5A0002092C6008091C00086FFFCCF8091C00001
:10E5B00080648093C0009DE29093C6008091C0006B
:10E5C00086FFFCCF8091C00080648093C0002092C1
:10E5D000C6008091C00086FFFCCF8091C00080649F
:10E5E0008093C00019828601750188249924A1E0D6
:10E5F0003A1651F03A1620F0B2E03B1661F409C029
:10E600000BBFF701779007C0C7010F9477FE782EF4
:10E6100002C0F7017080872D0F940DF22092C60082
:10E620008091C00086FFFCCF8091C0008064809301
:10E63000C000872D8052F401EF70F0708F3520F408
:10E64000E40DF51D708204C0E40DF51D8EE280839B
:10E650000894E11CF11C011D111D0894811C911CE2
:10E6600090E18916910409F0C2CF80E190E0A0E02A
:10E67000B0E0A80EB91ECA1EDB1E198AC2010F9493
:10E68000FAF10F94DCF16A94662009F072CF629679
:10E690000FB6F894DEBF0FBECDBFCF91DF911F91B3
:10E6A0000F91FF90EF90DF90CF90BF90AF909F9031
:10E6B0008F907F906F905F904F903F902F90089534
:10E6C0002F923F924F925F926F927F928F929F9282
:10E6D000AF92BF92CF92DF92EF92FF920F931F9370
:10E6E000DF93CF93CDB7DEB7CD53D1400FB6F894BB
:10E6F000DEBF0FBECDBF01E20EBF0FEF0DBF94B75F
:10E70000F894A89514BE80916000886180936000A1
:10E7100010926000789493FF05C0E0910002F091A0
:10E7200001021995279A2F9A8091C00082608093E8
:10E73000C00080E18093C40088E18093C1000000A4
:10E74000EE24FF24870144E0A42EB12CCC24DD2448
:10E7500024C0C5010197F1F70894E11CF11C011DCB
:10E76000111D21E2E2162EE4F20620E0020720E06D
:10E77000120718F031E0C32ED12CC801B70127ECE5
:10E780003BE140E050E00F9441FE611571058105C9
:10E79000910519F485B1805885B98091C00087FD35
:10E7A00003C0C114D104A9F2A6014F5F5F4FC25E3E
:10E7B000DE4F59834883CE51D140C25EDE4F8881FF
:10E7C0009981CE51D140019711F00D9410FEC05D9A
:10E7D000DE4F19821882C053D14060E0C15DDE4F28
:10E7E0001882CF52D14088249924C35DDE4F19820C
:10E7F0001882CD52D140C05EDE4F188219821A8233
:10E800001B82C052D140CE5CDE4F188219821A8220
:10E810001B82C253D140EE24FF2487010BBFF701B6
:10E8200007911691C45CDE4F19830883CC53D14005
:10E830000D940BFEC25EDE4F28813981CE51D1404E
:10E840002130310509F52091C600C25EDE4F1982E4
:10E850001882CE51D14022C02F5F3F4F4F4F5F4FA4
:10E86000213082E138078AE7480780E0580780F0C6
:10E87000C45CDE4FE881F981CC53D140EF5FFF4F9C
:10E8800019F0EE27FF27099420E030E040E050E047
:10E890008091C00087FFE0CF2091C600C35DDE4FAE
:10E8A00048815981CD52D1404F5F5F4FC35DDE4FEC
:10E8B00059834883CD52D140213209F063C64A3092
:10E8C000510508F05FC60894811C911C53E0851621
:10E8D000910409F059C600E010E018C081E280936D
:10E8E000C6008091C00086FFFCCF8091C00080648C
:10E8F0008093C0002F5F3F4F2931310579F70F9486
:10E90000DCF10F5F1F4F0530110519F020E030E0FA
:10E91000E5CF10920A0210920B0210920C02109294
:10E920000D02109206021092070210920802109235
:10E930000902109202021092030210920402109235
:10E9400005028FEE90EE60E00F94F5F180E191EE1C
:10E9500060E00F94C2F18091C00087FFFCCF9091DE
:10E96000C600903608F09F759032B8F09093C600BC
:10E970008091C00086FFFCCF8091C00080648093AE
:10E98000C000A0E2A093C6008091C00086FFFCCF2B
:10E990008091C00080648093C000983409F4D7C18E
:10E9A0009934B8F4923409F459C1933458F490333B
:10E9B00019F1903308F4E3C59F33A1F1903409F0C5
:10E9C000DEC5BDC0953409F470C1963409F0D7C5D1
:10E9D00098C1923509F42BC2933538F49C3409F46C
:10E9E000F5C1913509F0CBC518C2963509F445C279
:10E9F000993509F0C4C567C483E792EE62E00F94CD
:10EA0000F5F110920602109207021092080210927D
:10EA1000090210920A0210920B0210920C0210923C
:10EA20000D0213C18FE792EE62E00F94F5F18FEEC5
:10EA300090EE60E00F94F5F181E291EE60E00F94CA
:10EA4000C2F187EB91EE60E00F94F5F180E391EE77
:10EA500060E00F94C2F184EE90EE60E00F94F5F167
:10EA60008FE391EE60E00F94C2F186E090E061E008
:10EA700070E00F9434F20F94DCF18DE591EE60E0DC
:10EA80000F94C2F189EC91EE60E00F94F5F18EE401
:10EA900091EE60E00F94C2F183EC91EE60E00F9490
:10EAA000F5F18CE691EE60E00F94C2F18EE10F94E7
:10EAB0000DF288E90F940DF281E00F940DF20F949E
:10EAC000DCF18BE791EE60E00F94C2F119E0E0E039
:10EAD000F0E010935700E4918E2F0F940DF20F94F5
:10EAE000DCF18AE891EE60E00F94C2F1E3E0F0E03F
:10EAF00010935700E4918E2F0F940DF20F94DCF1D8
:10EB000089E991EE60E00F94C2F1E2E0F0E0109349
:10EB10005700E4918E2F0F940DF20F94DCF188EAE8
:10EB200091EE60E00F94C2F1E1E0F0E01093570045
:10EB30001491812F0F940DF20F94DCF107CF8BE825
:10EB400092EE62E00F94F5F18BE492EE60E00F94A8
:10EB5000F5F10F94DCF100E010E019C0C8016F2D51
:10EB60000F947FFEFF2031F489E492EE60E00F9471
:10EB7000C2F10BC0F092C6008091C00086FFFCCFAE
:10EB80008091C00080648093C0000F5F1F4FC80158
:10EB900081519F41A0E0B0E0ABBFFC01F790BAE229
:10EBA000FB1621F0E2E000301E07C1F60F94DCF105
:10EBB0000F94DCF187E592EE60E00F94F5F10F948D
:10EBC000DCF1CC24DD2400E010E01EC0C8010F946D
:10EBD00077FEF82E882331F489E492EE60E00F94FA
:10EBE000C2F10BC08093C6008091C00086FFFCCFAD
:10EBF0008091C00080648093C000FE1419F00894D6
:10EC0000C11CD11C0F5F1F4FC80181519F41A0E063
:10EC1000B0E0ABBFFC01E790FAE2EF1621F022E092
:10EC20000030120799F60F94DCF10F94DCF182E6C4
:10EC300092EE60E00F94C2F1C60161E070E00F94C3
:10EC400034F20F94DCF10F94DCF110920202109276
:10EC50000302109204021092050278CE89E992EE26
:10EC600062E00F94F5F1279A2F9A16C02F9880E052
:10EC700090E0E0EDF7E03197F1F7019684369105E9
:10EC8000C1F72F9A80E090E0E0EDF7E03197F1F7DF
:10EC9000019684369105C1F78091C00087FFE6CFC9
:10ECA0008091C00087FFFCCF64C485EA92EE62E0E9
:10ECB0000F94F5F140910202509103026091040219
:10ECC0007091050281E020E10F9491F2809102029F
:10ECD00090910302A0910402B091050280509F4FD1
:10ECE000AF4FBF4F8093020290930302A0930402A0
:10ECF000B093050280509041A040B04008F426CE69
:10ED0000A4CF83EB92EE62E00F94F5F140910602FE
:10ED100050910702609108027091090280E020E1A1
:10ED20000F9491F28091060290910702A09108023F
:10ED3000B091090280509F4FAF4FBF4F80930602A2
:10ED400090930702A0930802B0930902FFCD80ECD4
:10ED500092EE62E00F94F5F183E792EE60E00F949B
:10ED6000F5F18FE792EE60E00F94F5F18BE892EE0B
:10ED700060E00F94F5F189E992EE60E00F94F5F10F
:10ED800085EA92EE60E00F94F5F183EB92EE60E09D
:10ED90000F94F5F180EC92EE60E00F94F5F187ECC2
:10EDA00092EE60E00F94F5F188ED92EE60E00F9442
:10EDB000F5F18FED92EE60E00F94F5F18AEE92EEB0
:10EDC00060E00F94F5F183E093EEBDCD87EC92EE19
:10EDD00062E00F94F5F181E40F947BF282E40F94EA
:10EDE0007BF283E40F947BF284E40F947BF285E45E
:10EDF0000F947BF286E40F947BF287E40F947BF20E
:10EE000088E40F947BF28AE40F947BF28BE40F94F6
:10EE10007BF28CE40F947BF299CD88ED92EE62E068
:10EE20000F94F5F1772473948824992409C48FED05
:10EE300092EE62E00F94F5F140910A0250910B02BC
:10EE400060910C0270910D0282E020E10F9491F22A
:10EE500080910A0290910B02A0910C02B0910D02D8
:10EE600080509F4FAF4FBF4F80930A0290930B0289
:10EE7000A0930C02B0930D0269CD8AEE92EE62E08F
:10EE80000F94F5F184EE90EE60E00F94F5F18FECC5
:10EE900091EE60E00F94F5F1662477244301CC5D98
:10EEA000DE4F19821882C452D140D401C301B695F5
:10EEB000A79597958795CA5DDE4F88839983AA8326
:10EEC000BB83C652D140CC5DDE4FA881B981C4520C
:10EED000D1401196CC5DDE4FB983A883C452D14096
:10EEE000CD0162E070E00F9434F2B0E2B093C6005E
:10EEF0008091C00086FFFCCF8091C0008064809329
:10EF0000C000EDE2E093C6008091C00086FFFCCF18
:10EF10008091C00080648093C000F0E2F093C6004E
:10EF20008091C00086FFFCCF8091C00080648093F8
:10EF3000C000CA5DDE4FE880F9800A811B81C6529D
:10EF4000D140BB27A12F902F8F2D0F940DF2CA5DBA
:10EF5000DE4F8881C652D1400F940DF2B0E2FB2EF5
:10EF6000F092C6008091C00086FFFCCF8091C00067
:10EF700080648093C0000DE30093C6008091C000C0
:10EF800086FFFCCF8091C00080648093C00010E2B7
:10EF90001093C6008091C00086FFFCCF8091C00016
:10EFA00080648093C0008BBEF3012791C65DDE4F65
:10EFB0002883CA52D140A22EBB24CC24DD2408943D
:10EFC000611C711C811C911C8BBEF3018791282E42
:10EFD0003324442455240894611C711C811C911C09
:10EFE0008BBEF3013791C55DDE4F3883CB52D140E4
:10EFF0000894611C711C811C911C8BBEF30147910C
:10F00000C45DDE4F4883CC52D140ADEFEA2EAFEF66
:10F01000FA2EAFEF0A2FAFEF1A2F6E0C7F1C801E57
:10F02000911E142D032DF22CEE24EA0CFB1C0C1D5A
:10F030001D1D0F940DF220E22093C6008091C000A8
:10F0400086FFFCCF8091C00080648093C000C65DC5
:10F05000DE4F8881CA52D1400F940DF230E23093D6
:10F06000C6008091C00086FFFCCF8091C000806404
:10F070008093C000C45DDE4F8881CC52D1400F9494
:10F080000DF240E24093C6008091C00086FFFCCFA5
:10F090008091C00080648093C000C55DDE4F888190
:10F0A000CB52D1400F940DF250E25093C6008091A4
:10F0B000C00086FFFCCF8091C00080648093C000B8
:10F0C0008FEFE8168FEFF80680E0080780E018075A
:10F0D00031F484E092EE60E00F94C2F1DFC0D80119
:10F0E000C7018070907CA070B0708050904CA040A0
:10F0F000B040D1F52FEF3FE340E050E0E222F322B1
:10F1000004231523CA5DDE4FA880B980CA80DB8046
:10F11000C652D140AE0CBF1CC01ED11EAA0CBB1CD7
:10F12000CC1CDD1C8EE092EE60E00F94C2F1BB2798
:10F13000A12F902F8F2D0F940DF28E2D0F940DF285
:10F1400030E23093C6008091C00086FFFCCF8091F2
:10F15000C00080648093C0004EE34093C60080915D
:10F16000C00086FFFCCF87C08EE09EEFA0E0B0E03D
:10F17000E822F9220A231B239CE0E91694E9F90608
:10F1800090E0090790E0190709F088C0C45DDE4FE0
:10F19000A881CC52D140EA2EFF2400E010E0102FCD
:10F1A0000F2DFE2CEE24C55DDE4FB881CB52D14031
:10F1B000EB0EF11C011D111DD601C501817090706F
:10F1C000A070B070DC0199278827E80EF91E0A1F8D
:10F1D0001B1F20EF30E040E050E0A222B322C42207
:10F1E000D52241E1AA0CBB1CCC1CDD1C4A95D1F7F1
:10F1F000EA0CFB1C0C1D1D1D81E090E0A0E0B0E0BE
:10F20000282239224A225B2235E1220C331C441C7D
:10F21000551C3A95D1F7E20CF31C041D151D57013E
:10F220006801AA0CBB1CCC1CDD1C85E192EE60E0E1
:10F230000F94C2F1C801AA27BB270F940DF2BB2778
:10F24000A12F902F8F2D0F940DF28E2D0F940DF274
:10F2500090E29093C6008091C00086FFFCCF809121
:10F26000C00080648093C000AEE3A093C60080918C
:10F27000C00086FFFCCF8091C00080648093C000F6
:10F28000C601AA27BB270F940DF2BB27AD2D9C2DDD
:10F290008B2D0F940DF28A2D0F940DF20F94DCF14B
:10F2A000CC5DDE4FE881F981C452D140F99709F471
:10F2B0004DCBF4E0EF2EF12C012D112D6E0C7F1CA7
:10F2C000801E911EF2CD83E093EE62E00F94F5F183
:10F2D0008AE192EE60E00F94C2F18091C00087FF56
:10F2E000FCCF1091C6001F751093C6008091C0001E
:10F2F00086FFFCCF8091C00080648093C0000F9493
:10F30000DCF1812F81548A3108F036C1163409F4BA
:10F3100095C0173490F4133409F44EC0143430F40B
:10F320001134F1F0123409F01DC130C0143409F465
:10F3300059C0153409F016C16BC01A3409F4C4C0A1
:10F340001B3438F4173409F48FC0183409F00AC19B
:10F35000A1C01B3409F4D2C01C3409F003C1E8C0B9
:10F360008FEF81B90DC082B1809582B980E090E0C5
:10F37000E0EDF7E03197F1F70196883C9105C1F790
:10F380008091C00087FFEFCF12B8EFC08FEF84B934
:10F390000DC085B1809585B980E090E0E0EDF7E0A3
:10F3A0003197F1F70196883C9105C1F78091C00033
:10F3B00087FFEFCF15B8D9C08FEF87B90DC088B1DF
:10F3C000809588B980E090E0E0EDF7E03197F1F7C3
:10F3D0000196883C9105C1F78091C00087FFEFCF6F
:10F3E00018B8C3C08FEF8AB90DC08BB180958BB9A7
:10F3F00080E090E0E0EDF7E03197F1F70196883C8E
:10F400009105C1F78091C00087FFEFCF1BB8ADC059
:10F410008FEF8DB90DC08EB180958EB980E090E0F0
:10F42000E0EDF7E03197F1F70196883C9105C1F7DF
:10F430008091C00087FFEFCF1EB897C08FEF80BBD1
:10F440000DC081B3809581BB80E090E0E0EDF7E0F6
:10F450003197F1F70196883C9105C1F78091C00082
:10F4600087FFEFCF11BA81C08FEF83BB0DC084B38C
:10F47000809584BB80E090E0E0EDF7E03197F1F714
:10F480000196883C9105C1F78091C00087FFEFCFBE
:10F4900014BA6BC08FEF809301010FC080910201FD
:10F4A00080958093020180E090E0E0EDF7E03197F5
:10F4B000F1F70196883C9105C1F78091C00087FF64
:10F4C000EDCF1092020151C08FEF809304010FC065
:10F4D0008091050180958093050180E090E0E0ED4A
:10F4E000F7E03197F1F70196883C9105C1F78091DB
:10F4F000C00087FFEDCF1092050137C08FEF8093DA
:10F5000007010FC08091080180958093080180E079
:10F5100090E0E0EDF7E03197F1F70196883C910536
:10F52000C1F78091C00087FFEDCF109208011DC088
:10F530008FEF80930A010FC080910B01809580931B
:10F540000B0180E090E0E0EDF7E03197F1F70196F4
:10F55000883C9105C1F78091C00087FFEDCF1092E4
:10F560000B0103C085E292EEEEC98091C00087FFD7
:10F57000FCCF8091C600EAC988E392EEE4C98CE131
:10F5800091EEE1C988249924933011F1943028F444
:10F59000913089F09230B8F408C0953061F195301F
:10F5A000F0F0963009F048C043C02B3109F042C951
:10F5B00091E06BE13FC96227C15DDE4F2883CF52E6
:10F5C000D14092E037C9B22FA0E0622793E032C960
:10F5D000822F90E0A82BB92B622794E02BC92E3004
:10F5E00009F039C3622795E0C05DDE4F19821882A9
:10F5F000C053D1401FC9E1E0F0E0EC0FFD1FC05D3A
:10F60000DE4F08811981C053D140E00FF11F2083E4
:10F610000F5F1F4FC05DDE4F19830883C053D14079
:10F6200062270A171B0709F005C9D80196E002C92D
:10F63000261709F010C303C0973009F0FBC87724E0
:10F640009981933109F412C19431C8F4963009F4C8
:10F65000D8C0973050F4923009F406C1933009F4C1
:10F660006DC0913009F059C253C0913109F477C08F
:10F67000923108F0BBC0903109F04FC2F5C098310B
:10F6800009F487C0993150F4953109F4EFC09531F0
:10F6900008F4C6C1963109F040C2C2C19A3109F4DA
:10F6A0006CC09A3108F491C09B3109F45BC09D3164
:10F6B00009F033C29D81903359F48F81882311F46E
:10F6C0009EE11CC0813011F091E018C098E916C08D
:10F6D000892F807591F0903539F4E0E0F0E089E011
:10F6E0008093570094910AC0983539F4E3E0F0E034
:10F6F00089E080935700949101C090E01A821B82A8
:10F700008D818C831D829E831F8227E030E009C299
:10F710001A8288E08B8381E48C8386E58D8382E581
:10F720008E8389E48F8383E5888780E589878FE5E9
:10F730008A8782E38B872BE030E0F3C18A818139AD
:10F7400041F0823941F0803911F48FE005C080E04A
:10F7500003C082E001C08AE01A828B8344C0772410
:10F76000739482C08D81882311F48EE12CC0813086
:10F7700011F081E028C088E926C01A82E1E0F0E0BB
:10F7800089E08093570084918B831C8224E030E0D1
:10F79000C8C18B81803589F48C81883039F4E2E0EE
:10F7A000F0E089E08093570084910DC0E0E0F0E044
:10F7B00089E080935700849106C0E3E0F0E089E09F
:10F7C0008093570084911A82DFCF8D81836C99E0FA
:10F7D000E1E0F0E0082E90935700E89507B600FCB2
:10F7E000FDCF1A821B8223E030E09BC180EC8A832C
:10F7F000CE5CDE4F188219821A821B82C253D1401E
:10F800008EC18A8190E0A0E0B0E0582F44273327D2
:10F8100022278B8190E0A0E0B0E0DC0199278827C7
:10F82000282B392B4A2B5B2B8D8190E0A0E0B0E098
:10F83000282B392B4A2B5B2B8C8190E0A0E0B0E089
:10F84000BA2FA92F982F8827282B392B4A2B5B2BCF
:10F85000220F331F441F551FC05EDE4F288339839C
:10F860004A835B83C052D1401A8259C13A81C95C34
:10F87000DE4F3883C753D140CA5CDE4F1882C6536F
:10F88000D1408B81C82EDD24CA5CDE4F488159816E
:10F89000C653D140C42AD52A933109F082C0CE5C28
:10F8A000DE4F88819981AA81BB81C253D1408050AB
:10F8B000904CA340B04030F583E0CE5CDE4FE88052
:10F8C000F9800A811B81C253D140F70100935B008C
:10F8D00080935700E89507B600FCFDCFCE5CDE4F65
:10F8E000088119812A813B81C253D14000501F4FAA
:10F8F0002F4F3F4FCE5CDE4F088319832A833B8313
:10F90000C253D140C05EDE4F488159816A817B81FC
:10F91000C052D140DE011B9631E08C9111962C91A2
:10F9200011971296C75CDE4F2883C953D140C85C3B
:10F93000DE4F1882C853D14090E0C85CDE4FE881AA
:10F94000F981C853D1408E2B9F2B0C01FA01609393
:10F950005B0030935700E89511244E5F5F4F6F4F67
:10F960007F4F0EEFE02E0FEFF02ECE0CDF1CC114F8
:10F97000D10499F685E0C05EDE4F088119812A81A5
:10F980003B81C052D140F80120935B008093570027
:10F99000E89507B600FCFDCF81E180935700E8951C
:10F9A00035C0C05EDE4F88819981AA81BB81C0527B
:10F9B000D140B695A795979587957C018601ABE0D8
:10F9C000AA2EB12CAC0EBD1E0BC0D5016D915D01F0
:10F9D000C7010F947FFE0894E11CF11C01501040F8
:10F9E0000115110591F7A60160E070E0440F551F65
:10F9F000661F771FC05EDE4FE880F9800A811B8199
:10FA0000C052D1404E0D5F1D601F711F1A82C05E33
:10FA1000DE4F488359836A837B83C052D1407FC0C5
:10FA2000FA80C55CDE4FF882CB53D140C65CDE4F16
:10FA30001882CA53D1408B81C82EDD24C65CDE4FAC
:10FA400008811981CA53D140C02AD12A1A828981DA
:10FA5000BE016D5F7F4F843121F59601C05EDE4FA0
:10FA6000E880F9800A811B81C052D1400BBFF701A9
:10FA700087919691DB018C9311969C936E5F7F4FDB
:10FA8000D801C7010296A11DB11DC05EDE4F88835B
:10FA90009983AA83BB83C052D14022503040F1F6F3
:10FAA00036C0C05EDE4F288139814A815B81C052F9
:10FAB000D1400894C108D108760100E010E0089414
:10FAC000C11CD11C0894E11CF11C011D111DE20E8A
:10FAD000F31E041F151F21BDBB27A52F942F832FB5
:10FAE00082BD2F5F3F4F4F4F5F4FF89A80B5DB01CC
:10FAF0008D93BD012E153F054007510761F7C05E8C
:10FB0000DE4F288339834A835B83C052D1409601FC
:10FB10002D5F3F4FFB01108204C080EC8A8322E0FE
:10FB200030E08BE18093C6008091C00086FFFCCF5F
:10FB30008091C00080648093C000C15DDE4FF88179
:10FB4000CF52D140F093C6008091C00086FFFCCF19
:10FB50008091C00080648093C000432F3093C60022
:10FB60008091C00086FFFCCF8091C00080648093AC
:10FB7000C000922F2093C6008091C00086FFFCCF6A
:10FB80008091C00080648093C0008EE08093C600A6
:10FB90008091C00086FFFCCF8091C000806480937C
:10FBA000C00065E1C15DDE4FE880CF52D1406E25D7
:10FBB00069276427FE01319610C090819093C6009A
:10FBC0008091C00086FFFCCF31968091C000806498
:10FBD0008093C0006927215030402115310569F715
:10FBE0006093C6008091C00086FFFCCF8091C0006A
:10FBF00080648093C00085B1805885B9772081F4F6
:10FC0000C15DDE4F0881CF52D1400F5FC15DDE4F35
:10FC10000883CF52D14090E0A0E0B0E00D941AF4F8
:10FC200027982F9880E090E020ED37E0F901319798
:10FC3000F1F7019684369105C9F700008091C00064
:10FC40008D7F8093C00081E180935700E895EE2777
:10FC5000FF270994FFCF90E00D941AF497FB092E2B
:10FC600007260AD077FD04D02ED006D000201AF443
:10FC7000709561957F4F0895F6F7909581959F4F08
:10FC80000895A1E21A2EAA1BBB1BFD010DC0AA1FDD
:10FC9000BB1FEE1FFF1FA217B307E407F50720F0F5
:10FCA000A21BB30BE40BF50B661F771F881F991F70
:10FCB0001A9469F760957095809590959B01AC01B9
:10FCC000BD01CF010895AA1BBB1B51E107C0AA1FAC
:10FCD000BB1FA617B70710F0A61BB70B881F991FED
:10FCE0005A95A9F780959095BC01CD010895F99991
:10FCF000FECF92BD81BDF89A992780B50895262F31
:10FD0000F999FECF1FBA92BD81BD20BD0FB6F89400
:0EFD1000FA9AF99A0FBE01960895F894FFCF63
:040000033000E000E9
:00000001FF
