:1000000071C000008EC000008CC000008AC00000DB
:1000100088C0000086C0000084C0000082C00000CC
:1000200080C000007EC000007CC000007AC00000DC
:1000300078C0000076C0000074C0000072C00000EC
:1000400070C000006EC000006CC000006AC00000FC
:1000500068C0000066C0000064C0000062C000000C
:1000600060C000005EC000005CC000005AC000001C
:1000700058C0000056C0000054C0000052C000002C
:1000800050C000004EC000004CC000004AC000003C
:1000900048C0000046C0000044C0000042C000004C
:1000A00040C000003EC000003CC000003AC000005C
:1000B00038C0000036C0000034C0000032C000006C
:1000C00030C000002EC000002CC000002AC000007C
:1000D00028C0000026C0000024C0000022C000008C
:1000E00020C0000011241FBECFEFD1E2DEBFCDBF84
:1000F00000E00CBF22E0A4E0B2E001C01D92A830F5
:10010000B207E1F712E0A0E0B2E0E6EFFFE000E0C6
:100110000BBF02C007900D92A430B107D9F7ECD005
:1001200068C76ECFEF92FF920F931F93CF93DF9329
:100130007C01F4D6C9E1D0E0BE0184D48C01EED6B6
:10014000BE0180D4EC01F801FF27EE0FFF1FEE0F78
:10015000FF1FEE0DFF1DDE01BB27AA0FBB1FAA0F5D
:10016000BB1FAE0DBF1D2D913D914D915C916081E6
:10017000718182819381DED4181614F0802F01C022
:100180008C2FDF91CF911F910F91FF90EF900895E9
:100190002F923F924F925F926F927F928F929F9297
:1001A000AF92BF92CF92DF92EF92FF920F931F9385
:1001B000CF93DF9300D000D0CDB7DEB74C016D8375
:1001C0007E838DB79EB79C838B83EDB7FEB7E85EC9
:1001D000F3400FB6F894FEBF0FBEEDBF875E9340AD
:1001E0001C01609106027091070280E090E03AD510
:1001F0002B013C0181015101E12CF12CBA82A98231
:10020000C12CD12CF601EE0DFF1DE80DF91D60810A
:10021000718180E090E026D520E030E04AEF54E4A0
:10022000D3D5A30192018AD420E030E04AE754E418
:100230001CD4E981FA816193719381939193FA833C
:10024000E983F2E0CF0ED11C84E1C816D104D1F6C7
:1002500098E2A90EB11CE4E1EE0EF11CF4EFEF16EA
:10026000F1E0FF0659F6ED80FE8088E1281A8CEF58
:10027000380A680198E2C90ED11C812C912C5401D6
:10028000F80161917191819191918F019B01AC0174
:100290009BD59B01AC01C501B401E8D34B015C01C6
:1002A0000C151D0569F7F701619371938193919383
:1002B0007F0102151305E9F68B819C810FB6F89436
:1002C0009EBF0FBE8DBF26960FB6F894DEBF0FBE41
:1002D000CDBFDF91CF911F910F91FF90EF90DF90F5
:1002E000CF90BF90AF909F908F907F906F905F90D6
:1002F0004F903F902F9008952F923F924F925F9290
:100300006F927F928F929F92AF92BF92CF92DF9225
:10031000EF92FF920F931F93CF93DF93CDB7DEB78A
:10032000C659D9400FB6F894DEBF0FBECDBF2DB76A
:100330003EB7CD56D64F39832883C359D9408091D3
:10034000810081608093810010928500109284006A
:10035000809184009091850090930502809304021F
:10036000E0D584B1806C84B98DB79EB7845F91402D
:100370000FB6F8949EBF0FBE8DBFADB7BEB7119636
:100380002D01EDB7FEB7E456F1090FB6F894FEBFA4
:100390000FBEEDBF2DB73EB72F5F3F4FC157D64FB2
:1003A00039832883CF58D9408FEF9FEF909307026E
:1003B000809306028D0169E1F62E6801B4E1CB0E4F
:1003C000D11CACD5609106027091070227D3D801E9
:1003D0008D939D938D01AC15BD0599F7FA94F1109D
:1003E000ECCFC157D64F68817981CF58D940C2012F
:1003F000CFDE212C312CFE01E350FC4FC757D64FE6
:10040000F983E883C958D9409E012F503A4FC55708
:10041000D64F39832883CB58D940CE018B5C974F78
:10042000C357D64F99838883CD58D940A5E7B9E003
:10043000AC0FBD1F5496CB56D64FB983A883C55970
:10044000D9409E012F5F3F4F7901CE018B509E4FC7
:10045000F901D2014D915C9111979F012C5E3F4FA4
:1004600041935193E217F307D9F75496E817F90728
:1004700089F7CE01875F9D4FFC01749728B12670E4
:1004800028B91EBC0DB407FEFDCF28B1276028B9DE
:100490002EB530E021933193E817F90779F7CF01B2
:1004A0004496C757D64FE881F981C958D9408E176D
:1004B0009F0711F7CE0183509C4FFC01749728B120
:1004C000257028B91EBC0DB407FEFDCF28B12760EA
:1004D00028B92EB530E021933193E817F90779F761
:1004E000CF014496C557D64F28813981CB58D94082
:1004F0008217930711F7CE018F509A4FAE014B51DF
:10050000584FFC01749728B1237028B91EBC0DB454
:1005100007FEFDCF28B1276028B92EB530E0219322
:100520003193E817F90779F7CF01449684179507B7
:1005300041F7C157D64FA881B981CF58D9408E0114
:100540000F52184FF8014D915D916D917D9141933E
:10055000519361937193C357D64F88819981CD5838
:10056000D940E817F90779F7DE01AB5CB74F5D01B9
:100570006E01B7E6CB1AB7EFDB0A88B1867088B98F
:100580001EBC0DB407FEFDCF88B1876088B96EB57B
:1005900070E080E090E066D3F50161937193819300
:1005A00091935F01EC15FD0541F76E01F3E0CF1A61
:1005B000F7EFDF0A88B1857088B91EBC0DB407FE5D
:1005C000FDCF88B1876088B96EB570E080E090E0BB
:1005D00049D3D5016D937D938D939D935D01AC15AA
:1005E000BD0541F76E01BFE9CB1AB6EFDB0A88B152
:1005F000837088B91EBC0DB407FEFDCF88B187603B
:1006000088B96EB570E080E090E02CD3F50161937D
:100610007193819391935F01EC15FD0541F7F7010B
:10062000CF01449628B1267028B9208132962EBD7C
:100630000DB407FEFDCF2EB522B928B1276028B929
:10064000E817F90779F7E017F10751F7F701CF013C
:10065000449628B1257028B9208132962EBD0DB45C
:1006600007FEFDCF28B1276028B92EB522B9E817BB
:10067000F90779F7E017F10751F7F701CF01449631
:1006800028B1237028B9208132962EBD0DB407FE03
:10069000FDCF28B1276028B92EB522B9E817F90790
:1006A00079F7E017F10751F7580188B1867088B9DA
:1006B000D5016D917D918D919D915D01A7D26EBD0A
:1006C0000DB407FEFDCF8EB582B988B1876088B9B9
:1006D000AC14BD0451F7580188B1857088B9F50193
:1006E00061917191819191915F0190D26EBD0DB434
:1006F00007FEFDCF88B1876088B98EB582B9AC148A
:10070000BD0451F788B1837088B9D8016D917D918E
:100710008D919D918D017AD26EBD0DB407FEFDCFF6
:1007200088B1876088B98EB582B90C151D0551F75F
:1007300080E090E0F201E80FF91F97012C5E3F4F37
:10074000D7014D915D917D0141935193A217B3075C
:10075000B9F744968C33910569F78201045C1F4F09
:100760003201BCE06B1ABEEF7B0AEE24E394F12C5D
:1007700055E7852E59E0952E8C0E9D1EE4E18E0ED8
:10078000911CCE018F52984FCDDCD82ECE018F52C6
:10079000984FC8DCE1E0F0E0EC0FFD1F24E1D29EB1
:1007A000E00DF11D1124DE01AB58B64F5D0121E0D3
:1007B00030E02C0F3D1F44E1849F200D311D11249A
:1007C000C9015497CF56D64FB983A883C159D94090
:1007D000AF014C5E5F4F6D01950161917191D9013F
:1007E0006D937D939D01DC016D917D91CD01D601CD
:1007F0006D937D936D01E417F50779F78FD364E668
:1008000070E020D1BC01990F880B990B2DD220E00C
:1008100030E048EC52E492D123E333E343E35FE377
:1008200089D118160CF464C0DE01AF59B64FFE0131
:10083000EB58F64FC080D1806D917C91119780E08C
:1008400090E04D915C9111979601082E02C035956C
:1008500027950A94E2F720FF0AC09701082E02C0EC
:10086000220F331F0A94E2F7242B352B0BC097017C
:10087000082E02C0220F331F0A94E2F7209530950C
:100880002423352311963C932E93408151819B0163
:10089000082E02C0359527950A94E2F720FF0AC07A
:1008A0009701082E02C0220F331F0A94E2F7242B6F
:1008B000352B0BC09701082E02C0220F331F0A945C
:1008C000E2F7209530952423352331832083019648
:1008D0008F30910509F0B5CF32961296CB56D64F90
:1008E00028813981C559D940E217F30709F0A2CF11
:1008F000D80154969801F501819191915F01F90118
:10090000819391939F01CF56D64FE881F981C159C8
:10091000D94081919191CF56D64FF983E883C1593F
:10092000D9408D939D93A814B90429F7085D1F4FF2
:100930000615170509F025CF83E0E82EF12C99E183
:10094000C92ED12C2EE1A22EB12C88248394912C77
:10095000E5D2B60177D0F4E1F89F8001F99F100D40
:100960001124040D151D380124E1620E711CD6D22C
:10097000B50168D0D40102C0AA0FBB1F8A95E2F767
:10098000CD01F8012081318182279327D8018D93F1
:100990009D938D01A615B70551F7B1E0EB1AF1084B
:1009A000B9F6C157D64F68817981CF58D940C20175
:1009B000EFDB20FC02C02F9A01C02F98EFEF2E1A18
:1009C0003E0AF0E12F16F7E23F0609F03ACD80E04B
:1009D00090E0CD56D64FA881B981C359D9400FB602
:1009E000F894BEBF0FBEADBFCA56D64F0FB6F8942F
:1009F000DEBF0FBECDBFDF91CF911F910F91FF9052
:100A0000EF90DF90CF90BF90AF909F908F907F90AE
:100A10006F905F904F903F902F900895AA1BBB1B43
:100A200051E107C0AA1FBB1FA617B70710F0A61BEE
:100A3000B70B881F991F5A95A9F780959095BC010F
:100A4000CD01089597FB072E16F4009406D077FD8C
:100A500008D0E4DF07FC05D03EF4909581959F4FC8
:100A60000895709561957F4F08955058BB27AA2728
:100A70000ED070C161D130F066D120F031F49F3FCB
:100A800011F41EF456C10EF4E095E7FB4CC1E92FBA
:100A900072D180F3BA17620773078407950718F0BD
:100AA00071F49EF58AC10EF4E0950B2EBA2FA02D9D
:100AB0000B01B90190010C01CA01A0011124FF270B
:100AC000591B99F0593F50F4503E68F11A16F04006
:100AD000A22F232F342F4427585FF3CF4695379505
:100AE0002795A795F0405395C9F77EF41F16BA0BCA
:100AF000620B730B840BBAF09150A1F0FF0FBB1F78
:100B0000661F771F881FC2F70EC0BA0F621F731FC0
:100B1000841F48F4879577956795B795F7959E3F1D
:100B200008F0B3CF9395880F08F09927EE0F9795AB
:100B300087950895D4D008F481E008950CD00AC1B7
:100B400002D140F0F9D030F021F45F3F19F0EBC052
:100B5000511134C1EEC00FD198F39923C9F3552335
:100B6000B1F3951B550BBB27AA27621773078407A0
:100B700038F09F5F5F4F220F331F441FAA1FA9F356
:100B800033D00E2E3AF0E0E830D091505040E69548
:100B9000001CCAF729D0FE2F27D0660F771F881FA9
:100BA000BB1F261737074807AB07B0E809F0BB0B98
:100BB000802DBF01FF2793585F4F2AF09E3F5105BC
:100BC00068F0B1C0FBC05F3FECF3983EDCF3869564
:100BD00077956795B795F7959F5FC9F7880F911D32
:100BE0009695879597F90895E1E0660F771F881F1E
:100BF000BB1F621773078407BA0720F0621B730BD1
:100C0000840BBA0BEE1F88F7E0950895BCD088F0EE
:100C10009F5790F0B92F9927B751A0F0D1F0660FE8
:100C2000771F881F991F1AF0BA95C9F712C0B13003
:100C300081F0C3D0B1E00895C0C0672F782F882716
:100C4000B85F39F0B93FCCF3869577956795B39542
:100C5000D9F73EF490958095709561957F4F8F4FB1
:100C60009F4F0895E89409C097FB3EF490958095B6
:100C7000709561957F4F8F4F9F4F9923A9F0F92F62
:100C800096E9BB279395F695879577956795B795E0
:100C9000F111F8CFFAF4BB0F11F460FF1BC06F5FC6
:100CA0007F4F8F4F9F4F16C0882311F096E911C0D8
:100CB000772321F09EE8872F762F05C0662371F0F9
:100CC00096E8862F70E060E02AF09A95660F771F0D
:100CD000881FDAF7880F9695879597F90895990FE9
:100CE0000008550FAA0BE0E8FEEF16161706E807F6
:100CF000F907C0F012161306E407F50798F0621B17
:100D0000730B840B950B39F40A2661F0232B242BEB
:100D1000252B21F408950A2609F4A140A6958FEF0A
:100D2000811D811D089597F99F6780E870E060E05C
:100D300008959FEF80EC089500240A941616170674
:100D400018060906089500240A94121613061406BC
:100D500005060895092E0394000C11F4882352F01F
:100D6000BB0F40F4BF2B11F460FF04C06F5F7F4FD7
:100D70008F4F9F4F089557FD9058440F551F59F0BE
:100D80005F3F71F04795880F97FB991F61F09F3F78
:100D900079F087950895121613061406551FF2CFA1
:100DA0004695F1DF08C0161617061806991FF1CFF1
:100DB00086957105610508940895E894BB27662718
:100DC0007727CB0197F908950BD0C4CFB5DF28F072
:100DD000BADF18F0952309F0A6CFABCF1124EECFE0
:100DE000CADFA0F3959FD1F3950F50E0551F629F86
:100DF000F001729FBB27F00DB11D639FAA27F00D74
:100E0000B11DAA1F649F6627B00DA11D661F829F9A
:100E10002227B00DA11D621F739FB00DA11D621F7F
:100E2000839FA00D611D221F749F3327A00D611D9C
:100E3000231F849F600D211D822F762F6A2F11247E
:100E40009F5750408AF0E1F088234AF0EE0FFF1FD1
:100E5000BB1F661F771F881F91505040A9F79E3F08
:100E6000510570F060CFAACF5F3FECF3983EDCF302
:100E7000869577956795B795F795E7959F5FC1F745
:100E8000FE2B880F911D9695879597F908958F925F
:100E90009F92AF92BF92CF92DF92EF92FF92CF9349
:100EA000DF93EC01688179818A819B8161157105ED
:100EB0008105910521F464E279ED8BE597E02DE160
:100EC00033EF41E050E038D049015A019B01AC01B9
:100ED000A7EAB1E44DD06B017C01ACEEB4EFA50103
:100EE000940152D0DC01CB018C0D9D1DAE1DBF1DA8
:100EF000B7FF03C00197A109B04888839983AA83EB
:100F0000BB839F77DF91CF91FF90EF90DF90CF90E1
:100F1000BF90AF909F908F900895B9CF80E092E0FE
:100F2000B6CFA0E0B0E08093000290930102A093BE
:100F30000202B09303020895052E97FB16F4009465
:100F40000FD057FD05D024D007FC02D046F408C0CE
:100F500050954095309521953F4F4F4F5F4F0895E5
:100F600090958095709561957F4F8F4F9F4F089515
:100F700031D0A59F900DB49F900DA49F800D911D21
:100F800011240895B7FFF4CFF3DF821B930B08956C
:100F9000A1E21A2EAA1BBB1BFD010DC0AA1FBB1F7D
:100FA000EE1FFF1FA217B307E407F50720F0A21BEF
:100FB000B30BE40BF50B661F771F881F991F1A945C
:100FC00069F760957095809590959B01AC01BD0186
:100FD000CF010895A29FB001B39FC001A39F700DE0
:100FE000811D1124911DB29F700D811D1124911D31
:060FF0000895F894FFCF04
:040FF60001000000F6
:00000001FF
