:1000000071C000008EC000008CC000008AC00000DB
:1000100088C0000086C0000084C0000082C00000CC
:1000200080C000007EC000007CC000007AC00000DC
:1000300078C0000076C0000074C0000072C00000EC
:1000400070C000006EC000006CC000006AC00000FC
:1000500068C0000066C0000064C0000062C000000C
:1000600060C000005EC000005CC000005AC000001C
:1000700058C0000056C0000054C0000052C000002C
:1000800050C000004EC000004CC000004AC000003C
:1000900048C0000046C0000044C0000042C000004C
:1000A00040C000003EC000003CC000003AC000005C
:1000B00038C0000036C0000034C0000032C000006C
:1000C00030C000002EC000002CC000002AC000007C
:1000D00028C0000026C0000024C0000022C000008C
:1000E00020C0000011241FBECFEFD1E2DEBFCDBF84
:1000F00000E00CBF22E0A4E0B2E001C01D92A630F7
:10010000B207E1F712E0A0E0B2E0EEE4FEE000E0CA
:100110000BBF02C007900D92A430B107D9F7AFD042
:1001200094C66ECFEF92FF920F931F93CF93DF93FE
:100130007C0120D6C5E0D0E0BE01ACD38C011AD63C
:10014000BE01A8D3EC01F801FF27EE0FFF1FEE0F51
:10015000FF1FEE0DFF1DDE01BB27AA0FBB1FAA0F5D
:10016000BB1FAE0DBF1D2D913D914D915C916081E6
:1001700071818281938150D587FD02C0802F01C09B
:100180008C2FDF91CF911F910F91FF90EF900895E9
:100190004F925F926F927F928F929F92AF92BF9297
:1001A000CF92DF92EF92FF920F931F93CF93DF9343
:1001B000CDB7DEB764970FB6F894DEBF0FBECDBFE4
:1001C0008C014B01609104027091050280E090E087
:1001D00071D42B013C0178018E010F5F1F4F5E012E
:1001E00085E1A80EB11C6801F701619171917F0151
:1001F00080E090E05FD420E030E04AEF54E410D596
:10020000A3019201C3D320E030E04AE754E455D380
:10021000F60161937193819391936F01EA15FB0548
:1002200019F77401F80161917191819191918F0198
:100230009B01AC01F5D420E030E0A9013FD3F701E8
:1002400061937193819391937F010A151B0551F777
:1002500064960FB6F894DEBF0FBECDBFDF91CF918D
:100260001F910F91FF90EF90DF90CF90BF90AF90D4
:100270009F908F907F906F905F904F9008952F92F6
:100280003F924F925F926F927F928F929F92AF9226
:10029000BF92CF92DF92EF92FF920F931F93CF9373
:1002A000DF93CDB7DEB7C25FD1090FB6F894DEBFDA
:1002B0000FBECDBF8FEF93E09093050280930402B1
:1002C0007DEDE72EF12CEC0EFD1E2AE0E20EF11C76
:1002D0008E0103521F4F4ED56091040270910502AA
:1002E000C5D2F801819391938F01EE15FF0599F71F
:1002F0007E01F9ECEF0EF11CB701CE0183529F4F46
:1003000047DF20E137E2C751DF4F39832883C95ED9
:10031000D0408E010F551F4FA8014E5F5F4FC35154
:10032000DF4F59834883CD5ED0403E0151E5650ED5
:10033000711C8DED90E08C0F9D1F0896C151DF4F11
:1003400099838883CF5ED04044244394512CCF506E
:10035000DF4FE882C15FD040CE50DF4FF882C25FEE
:10036000D040C951DF4F19830883C75ED040980140
:10037000285F3F4FF80188B1867088B91EBC0DB464
:1003800007FEFDCF88B1876088B98EB590E0819374
:100390009193E217F30779F7C351DF4FE881F981B1
:1003A000CD5ED04098012E5E3F4F88B1857088B9F0
:1003B0001EBC0DB407FEFDCF88B1876088B98EB52D
:1003C00090E081939193E217F30779F7F80134965F
:1003D0009801245E3F4F88B1837088B91EBC0DB46C
:1003E00007FEFDCF88B1876088B98EB590E0819314
:1003F0009193E217F30779F7FE0131967F016E01C1
:10040000F1E1CF0ED11C570188B1867088B91EBCAE
:100410000DB407FEFDCF88B1876088B96EB570E076
:1004200080E090E047D3F5016193719381939193BC
:100430005F01EC15FD0541F75E01F5E0AF0EB11C63
:100440006E0125E2C20ED11C88B1857088B91EBC30
:100450000DB407FEFDCF88B1876088B96EB570E036
:1004600080E090E027D3F50161937193819391939C
:100470005F01EC15FD0541F75E01F9E0AF0EB11C1F
:100480006E0129E3C20ED11C88B1837088B91EBCED
:100490000DB407FEFDCF88B1876088B96EB570E0F6
:1004A00080E090E007D3F50161937193819391937C
:1004B0005F01EC15FD0541F7C551DF4F7982688278
:1004C000CB5ED0409301F70181919191A191B191BF
:1004D0007F01F90181939193A193B1939F01E61458
:1004E000F70489F7F30120803180C280D380730143
:1004F000F70181909190A190B1907F019101A601A7
:10050000C501B40189D3181614F414016501E0166D
:10051000F10671F77301F701208131814281538126
:10052000B101C601CAD19101A60130D2F701619390
:100530007193819391937F01E017F10761F7C801EF
:100540008896F80128B1267028B9208132962EBDF0
:100550000DB407FEFDCF2EB522B928B1276028B90A
:10056000E817F90779F7F80128B1257028B9208133
:1005700032962EBD0DB407FEFDCF28B1276028B9F5
:100580002EB522B9E817F90779F728B1237028B9F1
:10059000C951DF4FE881F981C75ED0402081329692
:1005A000C951DF4FF983E883C75ED0402EBD0DB43B
:1005B00007FEFDCF28B1276028B92EB522B9C95151
:1005C000DF4F28813981C75ED04028173907E9F607
:1005D0007301E016F106A1F088B1867088B9F701C1
:1005E00061917191819191917F0138D26EBD0DB46D
:1005F00007FEFDCF8EB582B988B1876088B9E9CF93
:100600007301E016F106E1F088B1857088B9F70151
:1006100061917191819191917F0120D26EBD0DB454
:1006200007FEFDCF88B1876088B98EB582B9E9CF62
:100630000DB407FEFDCF88B1876088B98EB582B949
:10064000C551DF4F28813981CB5ED040201731075B
:10065000B1F088B1837088B9C551DF4FE881F98165
:10066000CB5ED0406191719181919191C551DF4FE5
:10067000F983E883CB5ED040F1D16EBDD9CFF801CC
:1006800080819181C352DF4F99838883CD5DD040B3
:100690009E0123523F4F590154E6852E912CC301F0
:1006A00041DDF82EC3013EDDF801EF0DF11DEF0D28
:1006B000F11DC080D180F801E80FF11DE80FF11D98
:1006C000E080F18057D3B401E5D0BC01990F880BCD
:1006D000990BF2D120E030E048EC52E457D123E30B
:1006E00033E343E35FE34ED118160CF445C0A60193
:1006F000B70180E090E09A01082E02C03595279559
:100700000A94E2F720FD2EC09201082E02C0220FAB
:10071000331F0A94E2F720953095E222F3229B01E1
:10072000082E02C0359527950A94E2F720FD10C0E7
:100730009201082E02C0220F331F0A94E2F720957F
:100740003095C222D322019685309105A1F614C0BE
:100750009201082E02C0220F331F0A94E2F7C22A28
:10076000D32AF1CF9201082E02C0220F331F0A9420
:10077000E2F7E22AF32AD3CFF501D382C282F582CF
:10078000E482F4E0AF0EB11CC151DF4F2881398102
:10079000CF5ED040A216B30609F081CF82E0C82E0A
:1007A000D12C95E0A92EB12C2AE0822E912CE2D2F8
:1007B000B50170D07C01EE0CFF1C4DED50E04C0FEC
:1007C0005D1FE40EF51ED6D2B40164D0F20102C062
:1007D000EE0FFF1F8A95E2F7CF01F70120813181EB
:1007E0008227932791838083CA94CD2821F0CC243B
:1007F000C394D12CDCCFCF50DF4F6881C15FD04094
:10080000CE50DF4F7881C25FD040CE0183529F4FE0
:10081000BFDCC751DF4F28813981C95ED0402150EC
:100820003109C751DF4F39832883C95ED040232B5C
:1008300009F097CD80E090E0CE50DF4F0FB6F894EE
:10084000DEBF0FBECDBFDF91CF911F910F91FF9003
:10085000EF90DF90CF90BF90AF909F908F907F9060
:100860006F905F904F903F902F900895AA1BBB1BF5
:1008700051E107C0AA1FBB1FA617B70710F0A61BA0
:10088000B70B881F991F5A95A9F780959095BC01C1
:10089000CD01089597FB072E16F4009406D077FD3E
:1008A00008D0E4DF07FC05D03EF4909581959F4F7A
:1008B0000895709561957F4F08955058BB27AA27DA
:1008C0000ED070C161D130F066D120F031F49F3F7D
:1008D00011F41EF456C10EF4E095E7FB4CC1E92F6C
:1008E00072D180F3BA17620773078407950718F06F
:1008F00071F49EF58AC10EF4E0950B2EBA2FA02D4F
:100900000B01B90190010C01CA01A0011124FF27BC
:10091000591B99F0593F50F4503E68F11A16F040B7
:10092000A22F232F342F4427585FF3CF46953795B6
:100930002795A795F0405395C9F77EF41F16BA0B7B
:10094000620B730B840BBAF09150A1F0FF0FBB1F29
:10095000661F771F881FC2F70EC0BA0F621F731F72
:10096000841F48F4879577956795B795F7959E3FCF
:1009700008F0B3CF9395880F08F09927EE0F97955D
:1009800087950895D4D008F481E008950CD00AC169
:1009900002D140F0F9D030F021F45F3F19F0EBC004
:1009A000511134C1EEC00FD198F39923C9F35523E7
:1009B000B1F3951B550BBB27AA2762177307840752
:1009C00038F09F5F5F4F220F331F441FAA1FA9F308
:1009D00033D00E2E3AF0E0E830D091505040E695FA
:1009E000001CCAF729D0FE2F27D0660F771F881F5B
:1009F000BB1F261737074807AB07B0E809F0BB0B4A
:100A0000802DBF01FF2793585F4F2AF09E3F51056D
:100A100068F0B1C0FBC05F3FECF3983EDCF3869515
:100A200077956795B795F7959F5FC9F7880F911DE3
:100A30009695879597F90895E1E0660F771F881FCF
:100A4000BB1F621773078407BA0720F0621B730B82
:100A5000840BBA0BEE1F88F7E0950895BCD088F0A0
:100A60009F5790F0B92F9927B751A0F0D1F0660F9A
:100A7000771F881F991F1AF0BA95C9F712C0B130B5
:100A800081F0C3D0B1E00895C0C0672F782F8827C8
:100A9000B85F39F0B93FCCF3869577956795B395F4
:100AA000D9F73EF490958095709561957F4F8F4F63
:100AB0009F4F0895E89409C097FB3EF49095809568
:100AC000709561957F4F8F4F9F4F9923A9F0F92F14
:100AD00096E9BB279395F695879577956795B79592
:100AE000F111F8CFFAF4BB0F11F460FF1BC06F5F78
:100AF0007F4F8F4F9F4F16C0882311F096E911C08A
:100B0000772321F09EE8872F762F05C0662371F0AA
:100B100096E8862F70E060E02AF09A95660F771FBE
:100B2000881FDAF7880F9695879597F90895990F9A
:100B30000008550FAA0BE0E8FEEF16161706E807A7
:100B4000F907C0F012161306E407F50798F0621BC8
:100B5000730B840B950B39F40A2661F0232B242B9D
:100B6000252B21F408950A2609F4A140A6958FEFBC
:100B7000811D811D089597F99F6780E870E060E00E
:100B800008959FEF80EC089500240A941616170626
:100B900018060906089500240A941216130614066E
:100BA00005060895092E0394000C11F4882352F0D1
:100BB000BB0F40F4BF2B11F460FF04C06F5F7F4F89
:100BC0008F4F9F4F089557FD9058440F551F59F070
:100BD0005F3F71F04795880F97FB991F61F09F3F2A
:100BE00079F087950895121613061406551FF2CF53
:100BF0004695F1DF08C0161617061806991FF1CFA3
:100C000086957105610508940895E894BB276627C9
:100C10007727CB0197F908958ADF08F48FEF0895BD
:100C20000BD0C0CFB1DF28F0B6DF18F0952309F064
:100C3000A2CFA7CF1124EACFC6DFA0F3959FD1F3AF
:100C4000950F50E0551F629FF001729FBB27F00D7A
:100C5000B11D639FAA27F00DB11DAA1F649F6627CF
:100C6000B00DA11D661F829F2227B00DA11D621F1E
:100C7000739FB00DA11D621F839FA00D611D221FD8
:100C8000749F3327A00D611D231F849F600D211DBC
:100C9000822F762F6A2F11249F5750408AF0E1F05F
:100CA00088234AF0EE0FFF1FBB1F661F771F881FA8
:100CB00091505040A9F79E3F510570F05CCFA6CFF0
:100CC0005F3FECF3983EDCF3869577956795B79593
:100CD000F795E7959F5FC1F7FE2B880F911D9695BD
:100CE000879597F908958F929F92AF92BF92CF9276
:100CF000DF92EF92FF92CF93DF93EC0168817981CD
:100D00008A819B81611571058105910521F464E259
:100D100079ED8BE597E02DE133EF41E050E038D0FD
:100D200049015A019B01AC01A7EAB1E44DD06B0126
:100D30007C01ACEEB4EFA501940152D0DC01CB01F3
:100D40008C0D9D1DAE1DBF1DB7FF03C00197A109EE
:100D5000B04888839983AA83BB839F77DF91CF9123
:100D6000FF90EF90DF90CF90BF90AF909F908F90CB
:100D70000895B9CF80E092E0B6CFA0E0B0E08093D4
:100D8000000290930102A0930202B093030208951F
:100D9000052E97FB16F400940FD057FD05D024D0F4
:100DA00007FC02D046F408C0509540953095219537
:100DB0003F4F4F4F5F4F0895909580957095619587
:100DC0007F4F8F4F9F4F089531D0A59F900DB49FB7
:100DD000900DA49F800D911D11240895B7FFF4CFAD
:100DE000F3DF821B930B0895A1E21A2EAA1BBB1BF3
:100DF000FD010DC0AA1FBB1FEE1FFF1FA217B307E7
:100E0000E407F50720F0A21BB30BE40BF50B661FFC
:100E1000771F881F991F1A9469F7609570958095C0
:100E200090959B01AC01BD01CF010895A29FB00137
:100E3000B39FC001A39F700D811D1124911DB29F0E
:0E0E4000700D811D1124911D0895F894FFCFAF
:040E4E00010000009F
:00000001FF
