:100000000C9472000C948B000C948B000C948B005D
:100010000C948B000C948B000C948B000C948B0034
:100020000C948B000C948B000C948B000C948B0024
:100030000C948B000C948B000C948B000C948B0014
:100040000C948B000C948B000C948B000C948B0004
:100050000C948B000C948B000C948B000C948B00F4
:100060000C948B000C948B000C948B000C948B00E4
:100070000C948B000C948B000C948B000C948B00D4
:100080000C948B000C948B000C948B000C948B00C4
:100090000C948B000C948B000C948B000C948B00B4
:1000A0000C948B000C948B000C948B000C948B00A4
:1000B0000C948B000C948B000C948B000C948B0094
:1000C0000C948B000C948B000C948B000C948B0084
:1000D0000C948B000C948B000C948B000C948B0074
:1000E0000C948B0011241FBECFEFD1E2DEBFCDBF39
:1000F00000E00CBF12E0A0E0B2E0ECEBF1E000E0C9
:100100000BBF02C007900D92A030B107D9F70E9433
:100110008D000C94DC000C9400008FE081B912B8C3
:1001200086E084B980E58CBD87E087B988B940E076
:1001300034E027E069E170E088B1867088B94EBD8F
:100140000DB407FEFDCF8EB582B988B1876088B93E
:1001500080E197E2FB013197F1F70197D9F788B178
:10016000857088B93EBD0DB407FEFDCF88B18760AC
:1001700088B98EB582B980E197E2FB013197F1F73A
:100180000197D9F788B1837088B92EBD0DB407FEE9
:10019000FDCF88B1876088B98EB582B980E197E2DA
:1001A000FB013197F1F70197D9F74F5F47703F5F38
:0C01B00037702F5F2770C0CFF894FFCF8E
:00000001FF
