S00E0000536C617665332E73726563E8
S113000071C000008EC000008CC000008AC00000D7
S113001088C0000086C0000084C0000082C00000C8
S113002080C000007EC000007CC000007AC00000D8
S113003078C0000076C0000074C0000072C00000E8
S113004070C000006EC000006CC000006AC00000F8
S113005068C0000066C0000064C0000062C0000008
S113006060C000005EC000005CC000005AC0000018
S113007058C0000056C0000054C0000052C0000028
S113008050C000004EC000004CC000004AC0000038
S113009048C0000046C0000044C0000042C0000048
S11300A040C000003EC000003CC000003AC0000058
S11300B038C0000036C0000034C0000032C0000068
S11300C030C000002EC000002CC000002AC0000078
S11300D028C0000026C0000024C0000022C0000088
S11300E020C0000011241FBECFEFD1E2DEBFCDBF80
S11300F000E00CBF22E0A4E0B2E001C01D92A238EF
S1130100B207E1F712E0A0E0B2E0EAEDFEE000E0C1
S11301100BBF02C007900D92A430B107D9F76DD37D
S1130120DAC66ECF6F927F928F929F92AF92BF92F8
S1130130CF92DF92EF92FF920F931F93CF93DF93AF
S11301404C013B015A0169012230310514F17A0155
S1130150E4E0EE0EF11C00E010E0C1E0D0E0F701B5
S113016061917191819191917F01F801EE0FFF1FCF
S1130170EE0FFF1FEA0DFB1D208131814281538167
S1130180DFD388230CF48E012196CC15DD0539F7D5
S113019002C000E010E0000F111FF401E00FF11F96
S11301A080819181F30191838083DF91CF911F91AD
S11301B00F91FF90EF90DF90CF90BF90AF909F9002
S11301C08F907F906F900895EF92FF920F931F93FB
S11301D0CF93DF938C01EB0113D6BE01A3D57C0131
S11301E00FD6BE019FD5EC01F701FF27EE0FFF1FCD
S11301F0EE0FFF1FE00FF11F9927880F991F880F3B
S1130200991FD801A80FB91F2D913D914D915C9173
S1130210608171818281938193D3181614F08E2D9D
S113022001C08C2FDF91CF911F910F91FF90EF9020
S1130230089546E050E021E0220F21604150510929
S1130240D9F7DC014D915C91DB01ED91FC9130E03B
S1130250D901AE23BF230024B695A7950794B6957C
S1130260A7950794BA2FA02D242335232A2B3B2BA3
S1130270DC012D933C93E07C0024440F551F001CAB
S1130280440F551F001C452F502D4E2B5F2BFB0197
S11302905183408308953F924F925F926F927F9271
S11302A08F929F92AF92BF92CF92DF92EF92FF9282
S11302B00F931F93CF93DF9300D01F92CDB7DEB778
S11302C06C014B013A01790101E010E0590182E02F
S11302D0A81AB108290181E0481A510834C0B701AD
S11302E0C30172DF382EB701C3016EDFE32DF0E0E6
S11302F0EE0FFF1FEC0DFD1D208131813A83298310
S1130300E82FF0E0EE0FFF1FEC0DFD1D80819181C1
S11303109C838B8375D564E670E004D5BC01990F8A
S1130320880B990BACD320E030E048EC52E40CD3BA
S113033020E030E040E45FE303D318163CF507C047
S113034040165106B8F40E151F0548F226C0A01633
S1130350B106B0F3F801EE0FFF1FE80DF91D898116
S11303609A81918380838B819C81938382830E5FA6
S11303701F4FE9CFF801EE0FFF1FE80DF91D89812A
S11303809A81918380830F5F1F4FDDCFBE016D5F24
S11303907F4FCE0101964DDFDACF0F900F900F9073
S11303A00F90DF91CF911F910F91FF90EF90DF900D
S11303B0CF90BF90AF909F908F907F906F905F9001
S11303C04F903F900895CF93DF93EC0119D56CE0E3
S11303D070E0A8D421E030E002C0220F331F8A95D8
S11303E0E2F7888199812827392739832883DF9187
S11303F0CF910895AF92BF92CF92DF92EF92FF9286
S11304000F931F93CF93DF936C017B01072E000C96
S1130410880B990B34D32DEC3CEC4CE45DE31FD4F6
S11304207CD2FAD28B017723ACF0C0E0D0E0AA24CE
S1130430A394B12CE5D4B70175D4009711F48A2D97
S11304409B2D880F991F8C0D9D1DBDDF21960C17C8
S11304501D0784F7DF91CF911F910F91FF90EF90CB
S1130460DF90CF90BF90AF900895CF92DF92EF923C
S1130470FF920F931F93CF93DF937C01EB016A01EB
S1130480890150DE9801A601BE01C70104DFB8014D
S1130490CE01B0DFDF91CF911F910F91FF90EF90CC
S11304A0DF90CF900895CF93DF93EB01FC0160813F
S11304B0718180E090E0E1D220E030E048EC52E449
S11304C0CED320E030E040E859E3C9D320E030E067
S11304D0A901BFD120E030E040E85FE3B9D16883EF
S11304E079838A839B83DF91CF910895EF92FF9262
S11304F00F931F93CF93DF93141615068CF47C018E
S1130500EC01062F172F440F551FE40EF51EB801FA
S1130510CE01C9DF22960C5F1F4FCE15DF05B9F758
S1130520DF91CF911F910F91FF90EF9008956F92FB
S11305307F928F929F92AF92BF92CF92DF92EF926F
S1130540FF920F931F93CF93DF93CDB7DEB7662E41
S1130550772E8A01ADB6BEB64A01880C991C880C68
S1130560991C2DB73EB7281939090FB6F8943EBF28
S11305700FBE2DBFEDB7FEB731966F01BF01B6DFD9
S113058010161106BCF48601E62CF72CC80CD91CF5
S1130590F80161917191819191918F019B01AC015D
S11305A05ED3F70161937193819391937F010C154D
S11305B01D0571F70FB6F894BEBE0FBEADBEDF9138
S11305C0CF911F910F91FF90EF90DF90CF90BF904C
S11305D0AF909F908F907F906F900895CF93DF930B
S11305E0CDB7DEB728970FB6F894DEBF0FBECDBFE8
S11305F0FA01608371838283938328960FB6F894FB
S1130600DEBF0FBECDBFDF91CF9108950F931F932F
S1130610CF93DF93CDB7DEB728970FB6F894DEBF3C
S11306200FBECDBFFA018B019C0109831A832B8372
S11306303C8389819A81AB81BC8180839183A2832D
S1130640B38328960FB6F894DEBF0FBECDBFDF91FB
S1130650CF911F910F910895CF92DF92EF92FF9265
S1130660AB01BC0120E030E0C12CD12C76014EBDA1
S11306700DB407FEFDCF8EB590E0022E02C0880FA8
S1130680991F0A94E2F7092E000CAA0BBB0BC82A87
S1130690D92AEA2AFB2A452F562F672F7727285F66
S11306A03F4F2032310519F7C701B601FF90EF9093
S11306B0DF90CF9008950F931F93CF93DF93161677
S11306C017067CF48C01EC01660F771F060F171FC9
S11306D060E070E0CB01C0DF69937993C017D10764
S11306E0B9F7DF91CF911F910F910895CF92DF92C7
S11306F0EF92FF92CF93DF93CDB7DEB728970FB673
S1130700F894DEBF0FBECDBFAE014F5F5F4F66DF13
S113071020E030E089818EBD0DB407FEFDCF8EB59B
S113072090E0A0E0B0E0022E04C0880F991FAA1F39
S1130730BB1F0A94D2F7C82AD92AEA2AFB2A89813C
S11307409A81AB81BC81892F9A2FAB2FBB278983D8
S11307509A83AB83BC83285F3F4F20323105D1F6A7
S1130760AE014B5F5F4FC701B60150DF6D817E81E3
S11307708F81988528960FB6F894DEBF0FBECDBF43
S1130780DF91CF91FF90EF90DF90CF900895EF929B
S1130790FF920F931F93CF93DF93161617069CF4C3
S11307A07B01082F192FC0E0D0E060E070E0CB019E
S11307B09DDFF80161937193819391938F01219649
S11307C0CE15DF0591F7DF91CF911F910F91FF9027
S11307D0EF90089588E084B980E48CBD0895E1E841
S11307E0F0E0808181608083E4E8F0E0118210828F
S11307F080819181039607C30895F1DFEBDF81B116
S1130800836081B9109811986CE070E082E192E005
S113081052DF6CE070E086E492E0B9DF23E030E080
S113082046E452E06AE072E082E192E01EDE43E0D8
S113083050E066E772E08AE092E079DE809104029B
S11308409091050201969093050280930402DCCFF7
S11308505058BB27AA270ED0B1C1A2D130F0A7D1DE
S113086020F031F49F3F11F41EF497C10EF4E0958B
S1130870E7FB64C1E92FB3D180F3BA1762077307AA
S11308808407950718F071F49EF5E2C10EF4E09523
S11308900B2EBA2FA02D0B01B90190010C01CA0136
S11308A0A0011124FF27591B99F0593F50F4503EE1
S11308B068F11A16F040A22F232F342F4427585FD3
S11308C0F3CF469537952795A795F0405395C9F7EB
S11308D07EF41F16BA0B620B730B840BBAF09150A3
S11308E0A1F0FF0FBB1F661F771F881FC2F70EC042
S11308F0BA0F621F731F841F48F487957795679515
S1130900B795F7959E3F08F0B3CF9395880F08F0FD
S11309109927EE0F97958795089583D180F09F3797
S113092040F491110EF495C160E070E080E89FE31B
S1130930089526F01B16611D711D811D05C11FC17F
S1130940D9D008F481E008950CD038C130D140F0FA
S113095027D130F021F45F3F19F0F0C0511179C173
S11309601CC13DD198F39923C9F35523B1F3951BC9
S1130970550BBB27AA2762177307840738F09F5FBC
S11309805F4F220F331F441FAA1FA9F333D00E2E2B
S11309903AF0E0E830D091505040E695001CCAF798
S11309A029D0FE2F27D0660F771F881FBB1F26175D
S11309B037074807AB07B0E809F0BB0B802DBF0130
S11309C0FF2793585F4F2AF09E3F510568F0B6C049
S11309D040C15F3FECF3983EDCF3869577956795CD
S11309E0B795F7959F5FC9F7880F911D96958795E1
S11309F097F90895E1E0660F771F881FBB1F621700
S1130A0073078407BA0720F0621B730B840BBA0BBD
S1130A10EE1F88F7E095089504D06894B11119C1C8
S1130A200895E5D088F09F5790F0B92F9927B751D2
S1130A30A0F0D1F0660F771F881F991F1AF0BA959E
S1130A40C9F712C0B13081F003D1B1E0089500C1FB
S1130A50672F782F8827B85F39F0B93FCCF3869594
S1130A6077956795B395D9F73EF4909580957095F1
S1130A7061957F4F8F4F9F4F0895E89409C097FB6E
S1130A803EF490958095709561957F4F8F4F9F4F61
S1130A909923A9F0F92F96E9BB279395F6958795A5
S1130AA077956795B795F111F8CFFAF4BB0F11F468
S1130AB060FF1BC06F5F7F4F8F4F9F4F16C088230F
S1130AC011F096E911C0772321F09EE8872F762F45
S1130AD005C0662371F096E8862F70E060E02AF086
S1130AE09A95660F771F881FDAF7880F9695879572
S1130AF097F90895990F0008550FAA0BE0E8FEEF47
S1130B0016161706E807F907C0F012161306E407CD
S1130B10F50798F0621B730B840B950B39F40A26C6
S1130B2061F0232B242B252B21F408950A2609F4A4
S1130B30A140A6958FEF811D811D089597F99F67A8
S1130B4080E870E060E00895882371F4772321F051
S1130B509850872B762F07C0662311F499270DC070
S1130B609051862B70E060E02AF09A95660F771F0B
S1130B70881FDAF7880F9695879597F908959F3F10
S1130B8031F0915020F4879577956795B795880F44
S1130B90911D9695879597F908959FEF80EC089598
S1130BA000240A9416161706180609060895002448
S1130BB00A9412161306140605060895092E0394C2
S1130BC0000C11F4882352F0BB0F40F4BF2B11F436
S1130BD060FF04C06F5F7F4F8F4F9F4F089557FD95
S1130BE09058440F551F59F05F3F71F04795880F97
S1130BF097FB991F61F09F3F79F08795089512162E
S1130C0013061406551FF2CF4695F1DF08C01616D9
S1130C1017061806991FF1CF86957105610508948A
S1130C200895E5DFA0F0BEE7B91788F4BB279F3825
S1130C3060F41616B11D672F782F8827985FF7CFB9
S1130C40869577956795B11D93959639C8F3089560
S1130C50E894BB2766277727CB0197F908950BD033
S1130C60ADCF9EDF28F0A3DF18F0952309F066CFFF
S1130C7094CF1124EECFB3DFA0F3959FD1F3950F5A
S1130C8050E0551F629FF001729FBB27F00DB11D0C
S1130C90639FAA27F00DB11DAA1F649F6627B00D9C
S1130CA0A11D661F829F2227B00DA11D621F739F85
S1130CB0B00DA11D621F839FA00D611D221F749F93
S1130CC03327A00D611D231F849F600D211D822FDA
S1130CD0762F6A2F11249F5750408AF0E1F0882321
S1130CE04AF0EE0FFF1FBB1F661F771F881F91502E
S1130CF05040A9F79E3F510570F020CFAACF5F3F27
S1130D00ECF3983EDCF3869577956795B795F79560
S1130D10E7959F5FC1F7FE2B880F911D96958795E8
S1130D2097F9089597FB072E16F4009406D077FDE3
S1130D3008D00BD007FC05D03EF4909581959F4FC9
S1130D400895709561957F4F0895AA1BBB1B51E1CF
S1130D5007C0AA1FBB1FA617B70710F0A61BB70B27
S1130D60881F991F5A95A9F780959095BC01CD01CC
S1130D7008958F929F92AF92BF92CF92DF92EF929B
S1130D80FF92CF93DF93EC01688179818A819B8103
S1130D90611571058105910521F464E279ED8BE516
S1130DA097E02DE133EF41E050E038D049015A019A
S1130DB09B01AC01A7EAB1E44DD06B017C01ACEE20
S1130DC0B4EFA501940152D0DC01CB018C0D9D1D23
S1130DD0AE1DBF1DB7FF03C00197A109B0488883AA
S1130DE09983AA83BB839F77DF91CF91FF90EF9084
S1130DF0DF90CF90BF90AF909F908F900895B9CF20
S1130E0080E092E0B6CFA0E0B0E08093000290933F
S1130E100102A0930202B09303020895052E97FBEA
S1130E2016F400940FD057FD05D024D007FC02D04F
S1130E3046F408C050954095309521953F4F4F4F4B
S1130E405F4F089590958095709561957F4F8F4F72
S1130E509F4F089531D0A59F900DB49F900DA49FEE
S1130E60800D911D11240895B7FFF4CFF3DF821B89
S1130E70930B0895A1E21A2EAA1BBB1BFD010DC002
S1130E80AA1FBB1FEE1FFF1FA217B307E407F50736
S1130E9020F0A21BB30BE40BF50B661F771F881F12
S1130EA0991F1A9469F760957095809590959B01A8
S1130EB0AC01BD01CF010895A29FB001B39FC00151
S1130EC0A39F700D811D1124911DB29F700D811D72
S10D0ED01124911D0895F894FFCF3A
S1070EDA010000000F
S9030000FC
