:1000000071C000008EC000008CC000008AC00000DB
:1000100088C0000086C0000084C0000082C00000CC
:1000200080C000007EC000007CC000007AC00000DC
:1000300078C0000076C0000074C0000072C00000EC
:1000400070C000006EC000006CC000006AC00000FC
:1000500068C0000066C0000064C0000062C000000C
:1000600060C000005EC000005CC000005AC000001C
:1000700058C0000056C0000054C0000052C000002C
:1000800050C000004EC000004CC000004AC000003C
:1000900048C0000046C0000044C0000042C000004C
:1000A00040C000003EC000003CC000003AC000005C
:1000B00038C0000036C0000034C0000032C000006C
:1000C00030C000002EC000002CC000002AC000007C
:1000D00028C0000026C0000024C0000022C000008C
:1000E00020C0000011241FBECFEFD1E2DEBFCDBF84
:1000F00000E00CBF22E0A4E0B2E001C01D92A830F5
:10010000B207E1F712E0A0E0B2E0EEE7FDE000E0C8
:100110000BBF02C007900D92A430B107D9F702D1EE
:100120002CC66ECFEF92FF920F931F93CF93DF9366
:100130007C01B8D5C9E1D0E0BE0148D38C01B2D56D
:10014000BE0144D3EC01F801FF27EE0FFF1FEE0FB5
:10015000FF1FEE0DFF1DDE01BB27AA0FBB1FAA0F5D
:10016000BB1FAE0DBF1D2D913D914D915C916081E6
:10017000718182819381A2D3181614F0802F01C05F
:100180008C2FDF91CF911F910F91FF90EF900895E9
:100190002F923F924F925F926F927F928F929F9297
:1001A000AF92BF92CF92DF92EF92FF920F931F9385
:1001B000CF93DF93CDB7DEB72A970FB6F894DEBFA3
:1001C0000FBECDBF69877A876A012DB73EB73C83E2
:1001D0002B8348E24C9D90014D9D300D11244DB76D
:1001E0005EB7421B530B0FB6F8945EBF0FBE4DBFF8
:1001F0000DB71EB70F5F1F4F20910402309105020B
:100200005C011801812C912CC901A0E0B0E08D8324
:100210009E83AF83B8878C149D04CCF56D817E815D
:100220008F819885E3D32B013C013A822982E12C0E
:10023000F12CF501EE0DFF1D6081718180E090E0F1
:10024000D5D320E030E04AEF54E482D4A3019201F8
:1002500039D320E030E04AE754E4CBD2A981BA8117
:100260006D937D938D939D93BA83A983B2E0EB0E3A
:10027000F11CE4E1EE16F104E1F6FFEF8F1A9F0A9C
:1002800028E2220E311C34E1A30EB11CC4CFE98454
:10029000FA84A12CB12CAC14BD0424F5480148E229
:1002A000840E911C412C512C3201D8016D917D910D
:1002B0008D919D918D019B01AC014AD49B01AC01B4
:1002C000C301B20197D22B013C010815190569F74A
:1002D000F70161937193819391937F01FFEFAF1ABF
:1002E000BF0AD9CF2B813C810FB6F8943EBF0FBE19
:1002F0002DBF2A960FB6F894DEBF0FBECDBFDF919B
:10030000CF911F910F91FF90EF90DF90CF90BF9012
:10031000AF909F908F907F906F905F904F903F90A5
:100320002F9008952F923F924F925F926F927F92FB
:100330008F929F92AF92BF92CF92DF92EF92FF92F5
:100340000F931F93CF93DF93CDB7DEB7D8500FB67F
:10035000F894DEBF0FBECDBF2DB73EB7C350D84F08
:1003600039832883CD5FD74080918100816080935D
:1003700081001092850010928400809184009091F9
:10038000850090930702809306028FD4279A8DB739
:100390009EB7845F91400FB6F8949EBF0FBE8DBF8D
:1003A0000DB71EB70F5F1F4FADB7BEB7A456B1094B
:1003B0000FB6F894BEBF0FBEADBFEDB7FEB7319616
:1003C0004F018FEF9FEF9093050280930402780115
:1003D00049E1D42E5701B4E1AB0EB11C63D4609156
:1003E000040270910502DED1D7018D939D937D01AA
:1003F000AA15BB0599F7DA94D110ECCF44E650E08A
:10040000B401C801C5DE212C312CE5EEF7E0EC0F7C
:10041000FD1F7496C150D84FF983E883CF5FD74052
:1004200044244394512C58012CE0A21A2EEFB20A16
:10043000F801CF01449620812EBD0DB407FEFDCFFB
:1004400011921192E817F907B1F7EA15FB0589F740
:1004500064017401F4E6EF0EF11CD6016D917D91FB
:100460008D919C9197D26EBD0DB407FEFDCFF60124
:1004700011921192119211926F01EE15FF0569F719
:10048000DE011196AE014B505E4FFD019F012C5EC7
:100490003F4F1EBC0DB407FEFDCF8EB590E081939B
:1004A0009193E217F307A9F7E417F50779F780E0CE
:1004B00090E0F801E80FF91F9D012C5E3F4F4D9130
:1004C0005D9141935193A217B307C9F744968C33BA
:1004D000910579F77801FCE3EF0EF11C25EE622E11
:1004E00027E0722E6C0E7D1E24E1620E711CC40189
:1004F00019DED82EC40116DEE1E0F0E0EC0FFD1F9E
:1005000034E1D39EE00DF11D1124DE01AB51B84F53
:100510006D0121E030E02C0F3D1F44E1849F200D50
:10052000311D1124C9015497C750D84FB983A883EE
:10053000C95FD740AF014C5E5F4FC550D84FB983FC
:10054000A883CB5FD740960161917191D9016D93DA
:100550007D939D01DC016D917D91CD01C550D84FFA
:10056000A881B981CB5FD7406D937D93C550D84F9B
:10057000B983A883CB5FD740E417F50729F792D357
:1005800064E670E023D1BC01990F880B990B30D23F
:1005900020E030E048EC52E495D123E333E343E339
:1005A0005FE38CD118160CF46FC0DE01AF52B84F68
:1005B000FE01EB51F84F20813181C550D84F39836E
:1005C0002883CB5FD7406D917C91119780E090E0BC
:1005D0004D915C911197C550D84F28813981CB5FDF
:1005E000D740082E02C0359527950A94E2F720FFE0
:1005F0000AC09201082E02C0220F331F0A94E2F7AC
:10060000242B352B0BC09201082E02C0220F331F62
:100610000A94E2F7209530952423352311963C93D4
:100620002E93408151819B01082E02C0359527955C
:100630000A94E2F720FF0AC09201082E02C0220F9E
:10064000331F0A94E2F7242B352B0BC09201082E9E
:1006500002C0220F331F0A94E2F72095309524231D
:1006600035233183208301968F30910509F0B0CF77
:1006700032961296C150D84F88819981CF5FD7406A
:10068000E817F90709F097CFD70154969701F601BB
:10069000819191916F01F901819391939F01C750CD
:1006A000D84FE881F981C95FD74081919191C750B6
:1006B000D84FF983E883C95FD7408D939D93C614C3
:1006C000D70429F7F8E2EF0EF11CEA14FB0409F055
:1006D0000ECF83E0C82ED12C99E1A92EB12CE2D205
:1006E000B50174D024E1289F7001299FF00C1124DA
:1006F000E00EF11E370134E1630E711CD3D26EE1BE
:1007000070E064D0D20102C0AA0FBB1F8A95E2F745
:10071000CD01F7012081318182279327D7018D9365
:100720009D937D01A615B70549F7B1E0CB1AD10815
:10073000B1F649E150E0B401C8012ADDEFEF2E1A0D
:100740003E0A20FC02C02F9A01C02F98F0E12F161C
:10075000F7E23F0609F067CE80E090E0C350D84F43
:10076000A881B981CD5FD7400FB6F894BEBF0FBE48
:10077000ADBFD85F0FB6F894DEBF0FBECDBFDF911F
:10078000CF911F910F91FF90EF90DF90CF90BF908E
:10079000AF909F908F907F906F905F904F903F9021
:1007A0002F900895AA1BBB1B51E107C0AA1FBB1FB6
:1007B000A617B70710F0A61BB70B881F991F5A95ED
:1007C000A9F780959095BC01CD01089597FB072E60
:1007D00016F4009406D077FD08D0E4DF07FC05D0BE
:1007E0003EF4909581959F4F0895709561957F4F48
:1007F00008955058BB27AA270ED070C161D130F0A0
:1008000066D120F031F49F3F11F41EF456C10EF46E
:10081000E095E7FB4CC1E92F72D180F3BA1762076C
:1008200073078407950718F071F49EF58AC10EF4DA
:10083000E0950B2EBA2FA02D0B01B90190010C01F0
:10084000CA01A0011124FF27591B99F0593F50F408
:10085000503E68F11A16F040A22F232F342F442760
:10086000585FF3CF469537952795A795F040539558
:10087000C9F77EF41F16BA0B620B730B840BBAF028
:100880009150A1F0FF0FBB1F661F771F881FC2F793
:100890000EC0BA0F621F731F841F48F487957795A7
:1008A0006795B795F7959E3F08F0B3CF9395880F5E
:1008B00008F09927EE0F979587950895D4D008F4FE
:1008C00081E008950CD00AC102D140F0F9D030F097
:1008D00021F45F3F19F0EBC0511134C1EEC00FD1CC
:1008E00098F39923C9F35523B1F3951B550BBB27F7
:1008F000AA2762177307840738F09F5F5F4F220FA4
:10090000331F441FAA1FA9F333D00E2E3AF0E0E89C
:1009100030D091505040E695001CCAF729D0FE2FE8
:1009200027D0660F771F881FBB1F2617370748077A
:10093000AB07B0E809F0BB0B802DBF01FF27935830
:100940005F4F2AF09E3F510568F0B1C0FBC05F3F8A
:10095000ECF3983EDCF3869577956795B795F79518
:100960009F5FC9F7880F911D9695879597F9089510
:10097000E1E0660F771F881FBB1F621773078407AC
:10098000BA0720F0621B730B840BBA0BEE1F88F7BB
:10099000E0950895BCD088F09F5790F0B92F992723
:1009A000B751A0F0D1F0660F771F881F991F1AF07A
:1009B000BA95C9F712C0B13081F0C3D0B1E0089543
:1009C000C0C0672F782F8827B85F39F0B93FCCF3C4
:1009D000869577956795B395D9F73EF49095809570
:1009E000709561957F4F8F4F9F4F0895E89409C090
:1009F00097FB3EF490958095709561957F4F8F4F52
:100A00009F4F9923A9F0F92F96E9BB279395F69567
:100A1000879577956795B795F111F8CFFAF4BB0FE5
:100A200011F460FF1BC06F5F7F4F8F4F9F4F16C049
:100A3000882311F096E911C0772321F09EE8872FD3
:100A4000762F05C0662371F096E8862F70E060E08F
:100A50002AF09A95660F771F881FDAF7880F969508
:100A6000879597F90895990F0008550FAA0BE0E8AC
:100A7000FEEF16161706E807F907C0F01216130660
:100A8000E407F50798F0621B730B840B950B39F4A0
:100A90000A2661F0232B242B252B21F408950A2606
:100AA00009F4A140A6958FEF811D811D089597F946
:100AB0009F6780E870E060E008959FEF80EC089504
:100AC00000240A941616170618060906089500242D
:100AD0000A9412161306140605060895092E0394A7
:100AE000000C11F4882352F0BB0F40F4BF2B11F41B
:100AF00060FF04C06F5F7F4F8F4F9F4F089557FD7A
:100B00009058440F551F59F05F3F71F04795880F7B
:100B100097FB991F61F09F3F79F087950895121612
:100B200013061406551FF2CF4695F1DF08C01616BE
:100B300017061806991FF1CF86957105610508946F
:100B40000895E894BB2766277727CB0197F9089586
:100B50000BD0C4CFB5DF28F0BADF18F0952309F029
:100B6000A6CFABCF1124EECFCADFA0F3959FD1F370
:100B7000950F50E0551F629FF001729FBB27F00D4B
:100B8000B11D639FAA27F00DB11DAA1F649F6627A0
:100B9000B00DA11D661F829F2227B00DA11D621FEF
:100BA000739FB00DA11D621F839FA00D611D221FA9
:100BB000749F3327A00D611D231F849F600D211D8D
:100BC000822F762F6A2F11249F5750408AF0E1F030
:100BD00088234AF0EE0FFF1FBB1F661F771F881F79
:100BE00091505040A9F79E3F510570F060CFAACFB9
:100BF0005F3FECF3983EDCF3869577956795B79564
:100C0000F795E7959F5FC1F7FE2B880F911D96958D
:100C1000879597F908958F929F92AF92BF92CF9246
:100C2000DF92EF92FF92CF93DF93EC01688179819D
:100C30008A819B81611571058105910521F464E22A
:100C400079ED8BE597E02DE133EF41E050E038D0CE
:100C500049015A019B01AC01A7EAB1E44DD06B01F7
:100C60007C01ACEEB4EFA501940152D0DC01CB01C4
:100C70008C0D9D1DAE1DBF1DB7FF03C00197A109BF
:100C8000B04888839983AA83BB839F77DF91CF91F4
:100C9000FF90EF90DF90CF90BF90AF909F908F909C
:100CA0000895B9CF80E092E0B6CFA0E0B0E08093A5
:100CB000000290930102A0930202B09303020895F0
:100CC000052E97FB16F400940FD057FD05D024D0C5
:100CD00007FC02D046F408C0509540953095219508
:100CE0003F4F4F4F5F4F0895909580957095619558
:100CF0007F4F8F4F9F4F089531D0A59F900DB49F88
:100D0000900DA49F800D911D11240895B7FFF4CF7D
:100D1000F3DF821B930B0895A1E21A2EAA1BBB1BC3
:100D2000FD010DC0AA1FBB1FEE1FFF1FA217B307B7
:100D3000E407F50720F0A21BB30BE40BF50B661FCD
:100D4000771F881F991F1A9469F760957095809591
:100D500090959B01AC01BD01CF010895A29FB00108
:100D6000B39FC001A39F700D811D1124911DB29FDF
:0E0D7000700D811D1124911D0895F894FFCF80
:040D7E000100000070
:00000001FF
